:020000040000fa
:080000000401040000000000ef
:020000040000fa
:080200000040da000000fe00de
:020000040000fa
:0200000401f009
:04000000e7bf000056
:020000040000fa
:0200000401f009
:04000400ff7f00007a
:020000040000fa
:0200000401f009
:04000800eeff000007
:020000040000fa
:0200000401f009
:04001400ffff0000ea
:020000040000fa
:1000080000010000000100000001000000010000e4
:1000180000010000000100000001000000010000d4
:1000280000010000000100000001000012010000b2
:1000380000010000000100000001000000010000b4
:1000480000010000000100000001000000010000a4
:100058000001000000010000000100000001000094
:100068000001000000010000000100000001000084
:100078000001000000010000000100000001000074
:100088000001000000010000000100000001000064
:100098000001000000010000000100000001000054
:1000a8000001000000010000000100000001000044
:1000b8000001000000010000000100000001000034
:1000c8000001000000010000000100000001000024
:1000d8000001000000010000000100000001000014
:1000e8000001000000010000000100000001000004
:0800f8000001000000010000fe
:020000040000fa
:1001080000010000000100000001000000010000e3
:1001180000010000000100000001000000010000d3
:1001280000010000000100000001000012010000b1
:1001380000010000000100000001000000010000b3
:1001480000010000000100000001000000010000a3
:100158000001000000010000000100000001000093
:100168000001000000010000000100000001000083
:100178000001000000010000000100000001000073
:100188000001000000010000000100000001000063
:100198000001000000010000000100000001000053
:1001a8000001000000010000000100000001000043
:1001b8000001000000010000000100000001000033
:1001c8000001000000010000000100000001000023
:1001d8000001000000010000000100000001000013
:1001e8000001000000010000000100000001000003
:0801f8000001000000010000fd
:020000040000fa
:100208002f88200000f7200000018800000000006f
:10021800f00f200040158800ffff3700849fbe00c4
:0c0228008460a9004f02be0000400600e8
:020000040000fa
:10023400000800008000000000000000800f0000a3
:1002440080000000000000008008000002000000a0
:080254000000000000000000a2
:020000040000fa
:10025c000200000003000000050000000a0000007e
:00000001FF
