:020000040000FA
:0400000006EF00F017
:0800080053EF00F0D39CD388F4
:100010000E0EC16EA40EC06EC00EF26E9D8C836A71
:10002000956A816A936A846A966A826A946AC280CF
:10003000C282056A036A046A00A0FED70090C3CF9B
:1000400002F0630E026404D0052A9C0E0226F9D742
:100050000A0E03601ED0090E026404D0032AF60EB5
:100060000226F6D70A0E046011D0000E026403D0F7
:10007000042A0206F7D7000E06640ED0020E0526EB
:10008000050E0326040E04260606ECD7032A046A8E
:10009000DFD7052A036AEFD704C083FF03C081FFBF
:1000A00005C084FFC5D79E9CC3CF82FFC3CF02F09B
:0800B000C4CF06F0008010002F
:020000040030CA
:040000000005181EC1
:02000500018177
:060008000FC00FE00F40E5
:00000001FF
