:020000040000FA
:0400000005EF00F018
:0800080041D0D39CD38AD398A8
:100010000F0EC16E836A956A806A926AC70ED56EAA
:10002000A00EF26E0B0ED66E016A015030EC00F09D
:10003000836E807042EC00F081A0010681B0012A3D
:100040000F0E016401D0F0D781B0EFD7000E01622E
:10005000ECD73F0E836E42EC00F00F0E016EE5D739
:100060000134F9263F0C060C5B0C4F0C660C6D0C32
:100070007D0C070C7F0C670C770C7C0C390C5E0C2C
:10008000790C710C00A0FED700901200F2940B0EB8
:06009000D66E0080100096
:020000040030CA
:04000000000A181EBC
:02000500018177
:060008000FC00FE00F40E5
:00000001FF
