:020000040000FA
:10000000D39CD39AD3880F0EC16E836A956A836A94
:1000100081A0FED78380080E026E080E016E833623
:100020008CEC00F081A2D37881A2FED781A013D0FE
:10003000012EF5D7080E016E83328CEC00F081A200
:10004000D37881A2FED781A006D0012EF5D7022E4B
:10005000E4D7080E026E080E016E00C083FF83CF46
:10006000E8FF81A0FED7832A83268CEC00F081A2D2
:10007000D37881A2FED781A01DD0012EF0D7080E23
:10008000016E010E036E03C0E8FF835E020E0302E1
:10009000F3CF03F08CEC00F081A2D37881A2FED7DD
:1000A00081A008D0012EEFD7022ED5D781A0AFD7DF
:1000B000100E026E836A81A0FED783708CEC00F074
:1000C00081A0A5D7837E8CEC00F081A0A0D783729D
:1000D0008CEC00F081A09BD7837C8CEC00F081A09D
:1000E00096D783748CEC00F081A091D7837A8CEC46
:1000F00000F081A08CD783768CEC00F081A087D7AC
:1001000083788CEC00F081A082D781A2D37881A281
:10011000FED7022ED2D77BD7FF0E006E0000002E36
:04012000FDD71200F5
:020000040030CA
:04000000000A181EBC
:02000500018177
:060008000FC00FE00F40E5
:00000001FF
