:100000007AEF09F06896000C046ED8CF05F0E0CFC7
:1000100006F00001E9CF0CF0EACF07F0E1CF08F0DD
:10002000E2CF09F0D9CF0AF0DACF0BF0F3CF12F01C
:10003000F4CF13F0FACF14F000C00EF001C00FF0AF
:1000400002C010F003C011F0A0AA2AEF00F0A1BA7C
:1000500006EF08F00EC000F00FC001F010C002F073
:1000600011C003F00CC0E9FF07C0EAFF078E08C00B
:10007000E1FF09C0E2FF0AC0D9FF0BC0DAFF12C0DE
:10008000F3FF13C0F4FF14C0FAFF045006C0E0FFF2
:1000900005C0D8FF1000F76AA60FF66E000EF72213
:1000A0000900F5501200000302FFFFFFFFFFFFFFF2
:1000B000FFFFFFFFFFFFF76AC60FF66E000EF72285
:1000C0000900F550120000FF02FFFFFFFFFFFFFFD6
:1000D000FFFFFFFFFFFFF76AE60FF66E000EF72245
:1000E0000900F55012004000080040000000000028
:1000F0000000000000000000000000000000000000
:10010000000000000000F76A160FF66E010EF722DD
:100110000900F550120040000000400000000000FF
:1001200000000000000000000000000000000000CF
:10013000000000000000F76A460FF66E010EF7227D
:100140000900F55012000902430002010080320943
:100150000400000102020100052400100104240231
:10016000020524060001052401000107058103089A
:1001700000FA09040100020A00000007050202401B
:1001800000010705820240000100F76A9A0FF66E2F
:10019000010EF7220900F55012000200F76AAC0FB9
:1001A000F66E010EF7220900F550120012171B20FF
:1001B000FFFFFFFFF76AC40FF66E010EF72209007A
:1001C000F5501200120110010200004061043300DA
:1001D000000101020001F76AE60FF66E010EF72238
:1001E0000900F5501200040309040803430043000A
:1001F00053001803530045005200490041004C00D1
:100200002000440045004D004F006D92699468A4A1
:1002100002D06894FCD712EF08F0400E0401016F81
:10022000040E036F180E026F880E006F046B040E2D
:10023000076F580E066F0001000C70A002D0EDDFB2
:100240007090689A1BEF08F06A6A689221EF08F0D4
:10025000D091CFBFD081CF9FCF51100803E2000EC5
:10026000016E21D0D0A110D0036ACF51F2CFD1F0CE
:10027000F29E11DFD1BFF28EFF0802E1000E01D025
:10028000010E016E10D00FD0036ACF51F2CFD1F022
:10029000F29E11DFD1BFF28EFF0802E1000E01D005
:1002A000010E016E00D0000CD451D603F3CF01F043
:1002B000F4CF00F0D703F3500026D551D603F35006
:1002C0000020026E000C036ACE51700FE96E0F0E13
:1002D0000320EA6EEF6ACEC0CFF0BADF015222E00F
:1002E000D56BCEC0D4F0D76B080ED66FDDDF01C062
:1002F000E9FF040E0224EA6EEF6AD56BCEC0D4F09B
:10030000D76B080ED66FD0DF02C0D0F001C0CFF09F
:10031000040ECF27000ED023CFC0E9FF040ED02556
:10032000EA6EEF6A000C010ECD6FCD510F0805E3A8
:10033000CDC0CEF0C8DFCD2BF8D7000C2B6A2A6ACF
:10034000250E296E800E286E2C6A2D6A080E2E6EE0
:100350007D6B7C91306A2F6A786B7991000CC36B4E
:10036000C35101080AE3036AC351260FE96E000E68
:100370000320EA6EEF6AC32BF3D7E0DF1A6A010E9F
:100380001B6E196A000C6A6A686A9F0E6B6E3D0EDE
:10039000696E6E6AC8DFE3DF160E706E68A602D063
:1003A00031DEFCD76D9839DF030E216E27EF08F0A0
:1003B000698468986D822DEF08F0689C33EF08F02F
:1003C000C8C022F0000CFF0E226E000CC66B255236
:1003D00035E0C6513F0832E31C5005E0020A0DE04B
:1003E000010A15E01ED0036A2450F2CFC8F0F29E35
:1003F000A2DEC8BFF28EC76F14D0036A2450F2CFBA
:10040000C8F0F29EE8DEC8BFF28EC76F0AD0036A5A
:100410002450F2CFC8F0F29ECDDEC8BFF28EC76F77
:1004200000D0242A2506C651C62B580FE96E040EAB
:10043000EA6ED8B0EA2AC7C0EFFFC9D7255204E157
:10044000C651400801E0196AC6C0C8F0B9DF000C07
:10045000246A1C6A04011B51010A000107E0030A17
:100460000AE0010A0BE0220A20E03AD0120E256EC3
:10047000030E1C6E37D0430E256E34D0020E1C6E58
:10048000036A04011A511D0FE96E000E0320EA6E83
:10049000EFCF24F0036A2450F2CFC5F0F29E0001A2
:1004A0009ADEC5BFF28E256E1DD0036A04011A5173
:1004B000F2CFC5F0F29E000171DEC5BFF28E246E50
:1004C000243C01D00BD0036A2450F2CFC5F0F29E39
:1004D00032DEC5BFF28E256E05D002D074DF0ED09D
:1004E00072DF0CD004011F5305E125501E5D02E2AE
:1004F0001EC425F0010E196E000168DFC0EF03F085
:10050000C55304E1040E216E0EDFE7D0050E216E07
:10051000040EC86F980EC76F010EC66FC6510F0844
:10052000D8A0DBD0C6C0CEF0CEDEC96B036AC65100
:10053000F2CFCDF0F29EBFDDCDBFF28EFF0863E0BB
:10054000040EC96FD890C635036AF2CFCDF0F29E83
:10055000DADD0900F5CF03F0CDBFF28ECA6F03C01C
:10056000CBF0D56BC6C0D4F0D76B080ED66F9CDE2F
:1005700001C0CDF0010E0124016E000E0220036EB9
:1005800001C0E9FF040E0324EA6ECAC0EFFFD56B79
:10059000C6C0D4F0D76B080ED66F86DE01C0CDF092
:1005A000020E0124016E000E0220036E01C0E9FF5D
:1005B000040E0324EA6EC8C0ECFFED52C7C0EFFF83
:1005C000D890C635036AF2CFCDF0F29E9CDD0900CB
:1005D000F5CF03F0CDBFF28EC7270350C823880E96
:1005E000CC6FCBB1CC81CBB3CC83D56BC6C0D4F0B0
:1005F000D76B080ED66F58DE01C0E9FF040E022447
:10060000EA6ECCC0EFFF036AC651F2CFCDF0F29E86
:1006100042DDCDBFF28EFF0845E0C983D56BC6C071
:10062000D4F0D76B080ED66F3FDE02C0CEF001C00B
:10063000CDF0040ECD27000ECE23020ECD25016E87
:10064000000ECE21036E01C0E9FF040E0324EA6E02
:10065000C8C0ECFFED52C7C0EFFFD890C635036AA3
:10066000F2CFCDF0F29E37DD0900F5CF03F0CDBF1C
:10067000F28EC7270350C823D56BC6C0D4F0D76B02
:10068000080ED66F11DE02C0CEF001C0CDF0040E10
:10069000CD27000ECE23CDC0E9FF040ECE25EA6E95
:1006A000400EEF6EC951060802E10E0EC96F036AD3
:1006B000C651F2CFCDF0F29EEEDCCDBFF28E010836
:1006C000D8A4C989036AC651700FE96E0F0E0320C2
:1006D000EA6EC9C0EFFFC62B21D7BAEF03F00401C1
:1006E0001951000A00010DE0010A14E0020A1EE09F
:1006F000060A27E0030A2CE00E0A2CE0010A30E08B
:100700003DD01BC058F40401596B020E0001C86FA4
:1007100057DE36D004011A2D06D0010E1B1600013B
:10072000C86B4EDE02D000014EDE2AD004011A2D25
:1007300005D01B820001C86B43DE02D0000143DEFE
:100740001FD0020E196E1AC423F0C86B39DE18D000
:100750007FD616D01AC058F4010EC86F31DE10D003
:1007600004011A51010808E31AC41AF01AC4C5F0AA
:100770000001C6D6C86B24DE000102D024DE00D002
:1007800039EF05F01AC0C5F004011951000A000143
:1007900005E00A0A0BE0010A2BE03CD00401586B8B
:1007A000596B020E0001C86F0BDE36D0C5531EE038
:1007B000010EC55D036AF2CFC6F0F29EE6DCC6BF4D
:1007C000F28E016E04011C5DD8A002D000010ED093
:1007D000036A1C51260FE96E000E0320EA6EEFCF6C
:1007E00058F4010E0001C86FEBDD01D0ECDD14D030
:1007F000C5530EE0036A04011C51260FE96E000E7A
:100800000320EA6E1AC4EFFF0001C86BD9DD01D0E6
:10081000DADD02D0D8DD00D039EF05F0C691C5BFD2
:10082000C681C59FC6A117D0D56BC5C0D4F0D76B04
:10083000080ED66F39DD02C0C8F001C0C7F0040E43
:10084000C727000EC823C7C0E9FF040EC825EA6EFB
:10085000880EEF6E0DD0D56BC5C0D4F0D76B080EE7
:10086000D66F22DD01C0E9FF040E0224EA6EEF6AB2
:10087000AEEF04F0C691C5BFC681C59FC6A117D013
:10088000D56BC5C0D4F0D76B080ED66F0DDD02C096
:10089000C8F001C0C7F0040EC727000EC823C7C0A8
:1008A000E9FF040EC825EA6E840EEF6E0ED0D56BFC
:1008B000C5C0D4F0D76B080ED66FF6DC01C0E9FFD7
:1008C000040E0224EA6E840EEF6EB4EF04F0C691BB
:1008D000C5BFC681C59FC6A117D0D56BC5C0D4F012
:1008E000D76B080ED66FE0DC02C0C9F001C0C8F0BB
:1008F000040EC827000EC923C8C0E9FF040EC9258D
:10090000EA6EEFCFC7F00ED0D56BC5C0D4F0D76B71
:10091000080ED66FC9DC01C0E9FF040E0224EA6E9E
:10092000EFCFC7F0C7AF02D0C7B502D0000E01D0DD
:10093000010E016EBEEF04F01CC4CFF089DC015241
:1009400029E004011951010A000105E0020A09E049
:10095000030A0DE01DD01CC4C5F060D7C86B30DDA4
:1009600019D01CC4C5F086D7C86B2ADD13D004018A
:10097000586B596B1CC4C5F00001A9D7015204E0A3
:10098000010E0401586F0001020EC86F19DD02D07C
:100990001ADD00D039EF05F0FE0E226E000C0401C6
:1009A0001C2D01D002D01C5349E11951000A00014D
:1009B0000BE0010A0DE0210A1CE0010A1FE0030A16
:1009C0002EE0010A31E037D0010E7F6FE5DF35D030
:1009D000040EEA6E580EE96EE26A310EE16E080E00
:1009E000016EE6CFEEFF012EFCD71EC4C8F0E8DC96
:1009F00024D0020E7F6F7C81CFDF1FD0040EEA6E01
:100A0000580EE96EE26A280EE16E070E016EE6CF1F
:100A1000EEFF012EFCD7070EC86FD2DC0ED01AC431
:100A20007DF0C86BCDDC09D01AC430F01BC42FF0A8
:100A3000C86BC6DC02D0C7DC00D00401000139EF6E
:100A400005F0196A040118517F0B000A000107E044
:100A5000010A07E0030A07E0230A07E008D03FD6AF
:100A600008D090D606D068D704D099D702D0ABDC96
:100A700000D05BEF07F0D56BC5C0D4F0D76B080E84
:100A8000D66F12DC01C0E9FF040E0224EA6EEFCF3C
:100A9000C7F0C651020806E1C7AD02D0C66B02D04E
:100AA000010EC66FC65103081AE1840EC76FD56BDD
:100AB000C5C0D4F0D76B080ED66F54EC01F002C05D
:100AC000CBF001C0CAF0040ECA27000ECB23CAC067
:100AD000E9FF040ECB25EA6E840EEF6E07D0C62D1B
:100AE00003D0C80EC76F02D0880EC76FD890C53527
:100AF000036AF2CFCAF0F29E83EC00F00900F5CF52
:100B000003F0CABFF28EC86F03C0C9F0D56BC5C071
:100B1000D4F0D76B080ED66F54EC01F001C0CAF0C8
:100B2000010E0124016E000E0220036E01C0E9FFD8
:100B3000040E0324EA6EC8C0EFFFC9B1C781C9B370
:100B4000C783D56BC5C0D4F0D76B080ED66F54ECF5
:100B500001F001C0E9FF040E0224EA6EC7C0EFFFF6
:100B6000000C036AD351700FE96E0F0E0320EA6E7A
:100B7000EF5219E0D56BD3C0D4F0D76B080ED66F07
:100B800054EC01F002C0D5F001C0D4F0040ED4271B
:100B9000000ED523D4C0E9FF040ED525EA6EEFCFB1
:100BA000D4F0D4AF02D0000E01D0010E016E000CC3
:100BB000CEC0D3F0D6DF0152D8B47CD0D56BCEC036
:100BC000D4F0D76B080ED66F54EC01F002C0D4F00D
:100BD00001C0D3F0040ED327000ED423010ED32579
:100BE000016E000ED421036E01C0E9FF040E032440
:100BF000EA6ECFC0EFFFD15102081EE1D56BCEC027
:100C0000D4F0D76B080ED66F54EC01F002C0D4F0CC
:100C100001C0D3F0040ED327000ED423D3C0E9FFC4
:100C2000040ED425EA6EEFCFD2F0D2AD02D0D16B54
:100C300002D0010ED16F18D0D151040815E1D56B47
:100C4000CEC0D4F0D76B080ED66F54EC01F001C0C3
:100C5000E9FF040E0224EA6EEFCFD2F0D2AD03D04A
:100C6000010ED16F01D0D16BD12D03D0C80ED26F40
:100C700002D0880ED26FD0B1D281D0B3D283D56BDF
:100C8000CEC0D4F0D76B080ED66F54EC01F002C082
:100C9000D4F001C0D3F0040ED327000ED423D3C068
:100CA000E9FF040ED425EA6ED2C0EFFF010E016EFB
:100CB00003D000D0000E016E000C7F51010A03E04A
:100CC000030A13E024D0EA6A310EE96E040EE26EE4
:100CD000180EE16E080E016EE6CFEEFF012EFCD776
:100CE000C86BE0EC01F07F6B14D0EA6A280EE96E65
:100CF000040EE26E180EE16E070E016EE6CFEEFFF7
:100D0000012EFCD77F6BC86BE0EC01F002D07F6B4B
:100D100000D0B5EF06F0D56BC6C0D4F0D76B080E87
:100D2000D66F54EC01F002C0C8F001C0C7F0010E4C
:100D30000124016E000E0220036E01C0E9FF040EC3
:100D40000324EA6E036AEFCF01F003C002F0AEEFB6
:100D500006F079817B6B020EC66FDDD701C07AF099
:100D6000BAEF06F0C55302E1A8D704D0C551020876
:100D700001E1EFD7000CC6C06EFFC65303E0040EBE
:100D8000216E02D0020E216ECBEF06F01A6A196AAC
:100D900023C0C6F0F0D73AEF07F0C6C0D3F0E1DECB
:100DA000015246E0D56BC6C0D4F0D76B080ED66FA3
:100DB00054EC01F002C0CFF001C0CEF0040ECE27FB
:100DC000000ECF23020ECE25016E000ECF21036E42
:100DD00001C0E9FF040E0324EA6EECCF03F0ED52EC
:100DE000EFCFCCF003C0CDF0CDC0EAFFCCC0E9FF1F
:100DF000C8C0E2FFC7C0E1FFCAC002F0C9C001F02D
:100E0000015202E0022A02D0025206E0E6CFEEFFD3
:100E1000012EFCD7022EFAD7C6C0CEF0CAC0D0F041
:100E2000C9C0CFF0CBC0D1F0C3DE015003D000D099
:100E3000000E016E000C020EC66FC86B390EC76F34
:100E4000CA6B78C0C9F0020ECB6FA7DF78C07EF006
:100E5000786B000C785301E0EEDF3FEF07F0C553ED
:100E60000AE1192C03D0E6EC01F004D01950020875
:100E700001E18CD704D0C551020801E1EBD7000C89
:100E80002030C36FC333C3331F0EC317205242E158
:100E9000040100513C0B0001C46F430E0401001714
:100EA0000001C45134081EE104010451800B01E02B
:100EB000046B0001C6D56D98223C05D0C56B030EAE
:100EC000C66FD9DD0ED0C56B020EC66FD4DD2250C1
:100ED000FE0807E0CE6BD06B22C0CFF0040ED16FBE
:100EE00067DE17D0C451040814E1C56B3BDFC56B46
:100EF000020EC66FC0DD2250FE080AE0223C01D07F
:100F000007D0CE6BD06B22C0CFF0010ED16F50DE78
:100F100000D07AD02050040814E1430E04010417D5
:100F2000FF0E226E0001C56B9ADF223C01D008D073
:100F3000CE6BD06B22C0CFF0020ED16F39DE00D065
:100F400063D020B42AD0D56BC3C0D4F0D76B080EC1
:100F5000D66F54EC01F001C0C5F001C001F0040EE1
:100F60000224036E01C0C5F0C66FD56BC3C0D4F0B8
:100F7000D76B080ED66F54EC01F001C0E9FF040EE8
:100F80000224EA6EEF50430BC6C0EAFFC5C0E9FF7A
:100F9000EF6EC3C0C5F0E6DE37D0D56BC3C0D4F06A
:100FA000D76B080ED66F54EC01F002C0C6F001C03A
:100FB000C5F0040EC527000EC623C5C001F0040EFF
:100FC000C625036EC5C0C5F0C66FD56BC3C0D4F0CF
:100FD000D76B080ED66F54EC01F002C0C8F001C008
:100FE000C7F0040EC727000EC823C7C0E9FF040ED0
:100FF000C825EA6EEF50430BC6C0EAFFC5C0E9FF43
:10100000EF6EC3C0C5F02BDF3DEF08F0A19A21526F
:1010100001E139D0685237E068A404D069A402D055
:1010200005EF01F06DA201D02ED068AA04D069AA04
:1010300002D01DEF01F068A204D069A202D024EF13
:1010400001F068A004D069A002D0C3EF01F068A845
:1010500004D069A802D0D8EF01F068AC04D069AC24
:1010600002D0DDEF01F0C26B68A608D069A606D0F9
:101070006CCF20F002EC00F003D701D004D0C251B5
:10108000C22B0308F1E22AEF00F06D6A696A080ECC
:101090006F6E94503009946E216A166AF2BE168EF5
:1010A000F29EAFEC01F016BEF28E58EF08F0EDD7CD
:1010B0007DEF08F0166AF2BE168EF29EAFEC01F0DC
:1010C00016BEF28E6D6A140E6F6E696A6D86010E21
:1010D000216E6EEF08F06DB601D0ECD7212C0BD04D
:1010E0006DBA09D0686A696AA08AC00EF212110E40
:1010F000696E020E216E000CDAD7EDDF2150020876
:10110000FCE19FEF09F01A50016EA2EF09F0B15116
:10111000016AB05D03E2B0C000F00CD0006A080EB6
:10112000B26FB0370036B151005CD8B0006E0136F6
:10113000B22FF7D7000CA9C0EAFFA8C0E9FFB0C0E2
:10114000EFFFE92AD8B4EA2AEF6AA82BD8B4A92B72
:10115000000C200EABA9300EAC6FAAC000F0AAAFF5
:1011600007D0001E002A00C0AAF02D0EAC6FAB8F76
:101170000150AAC0B0F0640EB16FC9DF00C0AAF080
:10118000300E0124AD6FAAC0B0F00A0EB16FBFDF00
:10119000300E0024AF6F300E0124AE6FACC000F0F3
:1011A000ABA702D0ABAFAB95ABB90BD0ABAF22D0F6
:1011B000ABB520D000C0ADF0ABB31CD000C0AEF0DA
:1011C00019D0300EAD5D16E100C0ADF0200EAC6F51
:1011D000ABA704D0AB95AB83ABAFAB93300EAE5D9A
:1011E00009E100C0AEF0200EAD6FABA7F7D7AB930F
:1011F000ABAFAB91ABA503D0ACC0B0F09CDFABA361
:1012000003D0ADC0B0F097DFABA103D0AEC0B0F05B
:1012100092DFAFC0B0F08FDFB0EF09F0AE91F2BE59
:10122000AE81F29E78513E0802E23E0E786F785110
:10123000782B036A390FE96E000E0320EA6EADC009
:10124000EFFFF29EAEB1F28E166AF2BE168EF29EDD
:10125000020ED36F86DC16BEF28E015207E0166ACC
:10126000F2BE168EF29EE7DD16BEF28E51EF09F049
:1012700078513E0813E2166AF2BE168EF29E020EF6
:10128000D36F6FDC16BEF28E015207E0166AF2BE13
:10129000168EF29ED0DD16BEF28EEAD7ACC0ADF04F
:1012A000BDD75CEF09F0EF520FE0EACFABF0E9CF2A
:1012B000AAF0EFCFACF0DCD7ABC0EAFFAAC0E9FFE1
:1012C000E92AD8B4EA2AEFD7BAEF09F0EA6AAA0EF7
:1012D000E96EEF500DE0020E016E006A002EFED79F
:1012E000012EFBD7970E006E002EFED7EF2EF3D700
:1012F000BDEF09F0F86AD09E078EEA6AE96A176ABC
:10130000186A216A256A786B7F6B866BC150C00BA7
:101310000F09C16E070EB46E1D6A040E1E6E0C0E10
:101320001F6E806B816BA86BA96B000E966E966A20
:10133000070E8D6E010E946E9EEC01F0DDD6182A1C
:10134000CADEE1D6015219E082A014D096908D70C9
:10135000A96B880EA86F18C0AAF01F0EAB6FF9D644
:10136000200EB06FE8DE0A0EB06FE5DEEA6A880E86
:0E137000E96E99D70A0EAA6FA9D7E1D703003C
:020000040030CA
:0E00000021CE3E1E008781000FC00FE00F4092
:00000001FF
;PIC18F4550
;CRC=4CAF  CREATED="17-jun.-20 15:12"
