S01800004C65637475726120646520466C6173682E7372656345
S1130000EEC000000BC1000009C1000007C10000E0
S113001005C1000003C1000001C10000FFC00000D1
S1130020FDC00000FBC00000F9C00000F7C00000E4
S1130030F5C00000F3C00000F1C00000EFC00000F4
S1130040EDC00000EBC00000E9C00000E7C0000004
S1130050E5C00000E3C00000E1C00000DFC0000014
S1130060DDC0000051C10000D9C00000D7C00000AD
S1130070D5C00000D3C00000D1C00000CFC0000034
S1130080CDC00000CBC00000C9C00000C7C0000044
S1130090C5C00000C3C00000C1C00000BFC0000054
S11300A0BDC00000BBC00000B9C00000B7C0000064
S11300B0B5C00000B3C00000B1C00000AFC0000074
S11300C0ADC00000ABC00000A9C00000A7C0000084
S11300D0A5C00000A3C00000A1C000009FC0000094
S11300E09DC0000000407A10F35A00A0724E180917
S11300F00010A5D4E80000E87648170000E40B548B
S1130100020000CA9A3B000000E1F5050000809659
S11301109800000040420F000000A086010000008B
S1130120102700000000E803000000006400000045
S113013000000A00000000000100000000002C760E
S1130140D888DC674F0823DFC1DFAE59E1B1B79629
S1130150E5E3E453C63AE651997696E8E6C2842686
S1130160EB898C9B62ED407C6FFCEFBC9C9F40F262
S1130170BAA56FA5F490055A2AF75C936B6CF967DE
S11301806DC11BFCE0E40D47FEF520E6B500D0EDA3
S1130190902E0300943577050080841E080000200B
S11301A04E0A000000C80C333333330F986E1283A9
S11301B01141EF8D2114893BE65516CFFEE6DB187D
S11301C0D1844B381BF77C1D901DA4BBE424203242
S11301D084725E228100C9F124ECA1E53D2711243B
S11301E01FBECFEFD1E2DEBFCDBF00E00CBF12E0F7
S11301F0A0E0B2E0E8E7F1E100E00BBF02C0079045
S11302000D92AC3BB107D9F724E0ACEBB2E001C0EE
S11302101D92A632B207E1F7CAD2ACC7F1CE88E18B
S11302208093C10086E08093C20087E090E09093C1
S1130230C5008093C40008959091C00095FFFCCF41
S11302408093C6000895CF93DF93EC0102C0F4DFDE
S1130250219688818111FBCFDF91CF9108958FEF93
S113026087B98AB980930A0182B98093050111B8CC
S113027010920401E1E0F1E080818F658083808148
S11302808F7D8083E2E0F1E08081806280838081E1
S1130290876080838081886080838081806480839C
S11302A080818F7E808381E38A95F1F700008081CD
S11302B08061808386E69EE00197F1F7000008954F
S11302C0CF93DF93EC016CE172E0FDD4892B51F400
S11302D011B8109204018FEF82B98093050181E077
S11302E090E00FC061E272E0CE01EDD4892B39F4C5
S11302F08FEF81B98093040181E090E002C080E037
S113030090E0DF91CF9108951F920F920FB60F9254
S113031011240BB60F922F933F934F935F936F93D8
S11303207F938F939F93AF93BF93EF93FF938091AA
S1130330C60080931B029091FD0391113BC082354E
S113034029F480931A021092FD0351C0873541F4B9
S113035080931A0281E08093FD031092BC0247C08F
S1130360883549F469DF8AE067DF88E580931A02FB
S11303701092FD033CC0823621F481E08093000496
S113038036C0853421F482E08093000430C0863581
S113039021F481E0809300022AC0863719F4109278
S11303A0000225C088E548DF8AE046DF85E48093C3
S11303B01A021DC0E091BC0291E09E0F9093BC0212
S11303C0F0E090E0A0E0B0E0EE0FFF1FEE0FFF1FA3
S11303D0E354FD4F80839183A283B3839091BC0245
S11303E080910502981718F082E08093FD03FF9135
S11303F0EF91BF91AF919F918F917F916F915F9199
S11304004F913F912F910F900BBE0F900FBE0F9005
S11304101F9018958CE192E053DF9093160480931B
S11304201504892B41F487E292E00DDF8AE004DFB2
S11304308DE002CF089580B180930E0440911104A1
S1130440509112046091130470911404480F511DCB
S1130450611D711D409311045093120460931304A1
S113046070931404282F30E03093100420930F0469
S1130470E3DE8091030180930E04409111045091B6
S113048012046091130470911404480F511D611DEE
S1130490711D4093110450931204609313047093DC
S11304A014042091100430E0280F311D30931004FF
S11304B020930F04C1DE80910F0480930E040895ED
S11304C00F931F93E2E0F1E020812260208368B95A
S11304D0072F182F292F33270BB9AA27BB2780935F
S11304E00B010000000042B95093050180818E7F0A
S11304F0808380818B7F80838081846080838081FE
S1130500816080831F910F91089580E492E4AFE0AD
S1130510B0E006C00000000000000000DB01CA01DA
S11305202091000125FD0CC0AC01BD0141505109D1
S113053061097109892B8A2B8B2B61F7DB01CA01B5
S1130540892B8A2B8B2B19F488E392E07CCE0895B7
S1130550CF93C82F81E292E0B3DE90931604809388
S11305601504892B41F487E292E06DDE8AE064DEB3
S11305708DE062DE30C04AEA50E065E575E080E077
S113058090E09EDF45E550E06AEA72E080E090E0AA
S113059097DF40E850E065E575E080E090E090DFAB
S11305A04AEA50E065E575E080E090E089DF45E5E2
S11305B050E06AEA72E080E090E082DF6C2F70E045
S11305C080E090E040E350E07BDF80E791E001973A
S11305D0F1F700C09ADFCF91089510920A041092A7
S11305E00B0410920C0410920D04EDEBF2E08081E8
S11305F09181A281B381782F66275527442784816E
S11306009581A681B781DC0199278827842B952BB6
S1130610A62BB72B4085518562857385762F652F70
S1130620542F4427842B952BA62BB72B4485558513
S113063066857785842B952BA62BB72B80930A048C
S113064090930B04A0930C04B0930D0440E050E08D
S11306500DC0880F991F880F991FFC01E354FD4FAB
S113066080819181A281B381580F4F5F842F90E0E4
S11306702091BC0230E021503109821793074CF3DA
S11306805195E091BC02F0E03197EE0FFF1FEE0FA1
S1130690FF1FE354FD4F80819181A281B3815817DC
S11306A021F082E592E0CFCD089581E080930004AB
S11306B008954F925F926F927F929F92AF92BF92F2
S11306C0CF92DF92EF92FF920F931F93CF93DF931A
S11306D06B017C01EA012B013C0144245524E8947C
S11306E060F89090FE039A945B018FE1A822BB24EA
S11306F0092D10E081E292E0E3DD909316048093EB
S11307001504892B41F487E292E09DDD8AE094DDB3
S11307108DE092DD3CC0A016B106A1F14AEA50E09A
S113072065E575E080E090E0CBDE45E550E06AEAFF
S113073072E080E090E0C4DE45E250E0C301B20123
S1130740BFDEA801C701B601BBDE10E013C0E12F74
S1130750F0E0EE0FFF1FEC0FFD1F40815181542785
S113076045275427C701B601610F711D811D911DD5
S1130770A7DE1F5F911658F749E250E0C301B201AA
S11307809FDE05C087E292E05EDD8AE055DDDF9101
S1130790CF911F910F91FF90EF90DF90CF90BF907A
S11307A0AF909F907F906F905F904F900895CF93FC
S11307B0DF93CDB7DEB7C054D1090FB6F894DEBFCE
S11307C00FBECDBFF8942BDD88E98093C1007894E7
S11307D046DD89E190E0A0E0B0E0809301029093CF
S11307E00202A0930302B093040280E192E02BDDA5
S11307F086E092E028DD8AE01FDD84E592E023DDD7
S11308006091000270E080E090E001D207E114E022
S113081020E043E039D2C80116DD8AE00DDD809185
S1130820050290E005979C0112F42F5F3F4F359528
S113083027952093FE0380911A02823509F024C182
S113084080E380931A0210920A0410920B0410920F
S11308500C0410920D04C12CD12C760106C1D701D1
S1130860C601880F991FAA1FBB1F880F991FAA1FB3
S1130870BB1F880F991FAA1FBB1F409101045091F1
S113088002046091030470910404840F951FA61F51
S1130890B71F80930A0490930B04A0930C04B093A5
S11308A00D04109211041092120410921304109269
S11308B0140488B980910A0490910B04A0910C044B
S11308C0B0910D04892F9A2FAB2FBB278BB9809140
S11308D00A0490910B04A0910C04B0910D04CD0175
S11308E0AA27BB2780930E0480930B0140910A042E
S11308F050910B0460910C0470910D04440F551F2A
S1130900661F771F409306045093070460930804FE
S113091070930904872F9927AA27BB2700911104F4
S1130920109112042091130430911404080F191F1C
S11309302A1F3B1F060F111D211D311D050F111DFF
S1130940211D311D552766277727400F511F621F30
S1130950731F409311045093120460931304709313
S113096014048093050468DC8091060490910704C4
S1130970A0910804B0910904CD01AA27BB27809354
S113098005045ADC8091060490910704A0910804A0
S1130990B0910904892F9A2FAB2FBB2780930504AC
S11309A04BDC809106048093050446DCE2E0F1E030
S11309B080818E7F808380818D7F80831092FF036E
S11309C010E011C080910A0490910B04A0910C04D2
S11309D0B0910D04BC01CD01610F711D811D911DEC
S11309E068B918DD1F5F183068F3E2E0F1E0808138
S11309F082608083808181608083809111049091E2
S1130A001204A0911304B0911404B095A09590958C
S1130A1081959F4FAF4FBF4F9927AA27BB2780933C
S1130A20110490931204A0931304B093140404DCEF
S1130A308091000281110EC081E0809300045AE08D
S1130A405A95F1F707C0823029F481E0C81AD10819
S1130A50E108F108809100048823A9F310920004AE
S1130A60AFEFCA1ADA0AEA0AFA0A809101029091EF
S1130A700202A0910302B0910402C816D906EA0644
S1130A80FB0608F4ECCED7CE873509F09AC0109255
S1130A90000401C000008091FD038130D9F39DDD85
S1130AA0EDEBF2E0408951896289738984899589E3
S1130AB0A689B789542F4427842B952B909310042F
S1130AC080930F0480900A0490900B04A0900C046F
S1130AD0B0900D04B694A7949794879480920604DA
S1130AE090920704A0920804B0920904FE01319682
S1130AF080E4DF011D928A95E9F78091000481303A
S1130B0009F059C043C0242F30E0C9010296880F70
S1130B1090E0FC01EE0FFF1FEE0FFF1FE354FD4FAB
S1130B20C080D180E280F380FC013196EE0FFF1F7C
S1130B30EE0FFF1FE354FD4F80819181A281B381A9
S1130B40DC2CCC248C299D299093100480930F04D1
S1130B5075016401C40ED11CE11CF11CB0E1CB167B
S1130B60B0EEDB06BFEFEB06F10460F4220F331F97
S1130B70E1E0F0E0EC0FFD1FE20FF31F91838083AF
S1130B804F5F05C082E592E05EDB06C040E08091E5
S1130B90FE03481708F4B7CF609106047091070468
S1130BA08091080490910904AE014F5F5F4F81DD8D
S1130BB081E692E048DB80E380931A021092FD0301
S1130BC03ACE8835B1F483E692E03DDB10E006C00E
S1130BD0812FBEDC8CE792E036DB1F5F1F3FC1F73D
S1130BE08FEFB6DC88E892E02EDB80E380931A0274
S1130BF022CE853409F01FCE82E992E024DB8AE01C
S1130C001BDB8DE019DB80E380931A0214CEE89499
S1130C1009C097FB3EF490958095709561957F4F40
S1130C208F4F9F4F9923A9F0F92F96E9BB279395EE
S1130C30F695879577956795B795F111F8CFFAF4FE
S1130C40BB0F11F460FF1BC06F5F7F4F8F4F9F4F2F
S1130C5016C0882311F096E911C0772321F09EE88D
S1130C60872F762F05C0662371F096E8862F70E0F3
S1130C7060E02AF09A95660F771F881FDAF7880FCD
S1130C809695879597F90895EF920F931F93CF93B5
S1130C90DF93E80147FD02C034E001C034E1042ED3
S1130CA0000C550B57FF03C0519541955109E32E94
S1130CB0022F242FAE0110D0CE01DF91CF911F91CE
S1130CC00F91EF900895FB01DC018D910190801943
S1130CD00110D9F3990B08958F929F92AF92BF920E
S1130CE0CF92DF92EF92FF920F931F93CF93DF93F4
S1130CF0CDB7DEB729970FB6F894DEBF0FBECDBFD0
S1130D006A01122FB02E2BE3201720F0FF24F39456
S1130D10F00E02C02CE3F22E0F2D27E0AE014F5F40
S1130D205F4F50D1BC014981842F8970813031F0EB
S1130D30E1FC06C0E0FE06C090E205C09DE203C0EF
S1130D409BE201C090E05E2D507143FF3CC09111C5
S1130D5002C083E001C084E0811718F4212F281B0E
S1130D6001C020E051110BC0F601822F30E288232C
S1130D7019F031938150FBCFC20ED11C20E099238E
S1130D8029F0D6019C93F60131966F01C6010396B2
S1130D90E2FE0AC03EE4D6013C9341E411964C9332
S1130DA0119712963C9306C03EE6F601308341E665
S1130DB041833283FC01322F40E2332309F442C0E1
S1130DC041933150FACF42FF44C0911102C083E0F5
S1130DD001C084E0811718F4212F281B01C020E0F2
S1130DE051110BC0F601822F30E2882319F03193A0
S1130DF08150FBCFC20ED11C20E0992329F0D601EB
S1130E009C93F60131966F01C6010396E2FE0BC076
S1130E1039E4D6013C933EE411963C93119736E4B1
S1130E2012963C9307C039E6F60130833EE63183DF
S1130E3036E63283FC01322F40E2332319F041932A
S1130E403150FBCFFC01E20FF11D10828EEF9FEFBA
S1130E50A6C021E030E0911102C020E030E0161677
S1130E6017061CF4FB01319602C0E1E0F0E02E0FFE
S1130E703F1FBB2021F0EB2DF0E0319602C0E0E0F3
S1130E80F0E02E0F3F1FE12FF0E02E173F071CF478
S1130E90121B212F01C020E08E2D887159F4F60118
S1130EA0822F30E2882319F031938150FBCFC20E98
S1130EB0D11C20E0992329F0D6019C93F6013196A8
S1130EC06F0151110BC0F601822F90E3882319F0B2
S1130ED091938150FBCFC20ED11C20E00F2D060F41
S1130EE09A81342F307144FF03C0913309F40150C7
S1130EF0101624F4093018F008E001C001E0AB0139
S1130F0077FF02C040E050E0FB01E41BF50BA1E0D9
S1130F10B0E0AC0FBD1FEA0FFB1F8EE2A82E4B0101
S1130F20801A91080B2D10E01195019511094F3F7E
S1130F30BFEF5B0721F4D601AC9211966D016417E3
S1130F4075072CF08416950614F4818101C080E3A2
S1130F50415051093196D60111967D014017510730
S1130F6024F0D6018C936701E2CF6417750739F436
S1130F70963320F4953319F4311101C081E3F6015D
S1130F808083F701822F90E2882319F09193815096
S1130F90FBCFF701E20FF11D108280E090E029966B
S1130FA00FB6F894DEBF0FBECDBFDF91CF911F9176
S1130FB00F91FF90EF90DF90CF90BF90AF909F90F4
S1130FC08F900895283008F027E03327DA01990F2D
S1130FD0311D87FD916000966105710539F4326019
S1130FE02E5F3D9330E32A95E1F708959F3F30F05B
S1130FF080387105610509F03C5F3C5F3D93913099
S113100008F08068911DDF93CF931F930F93FF9295
S1131010EF92192F987F9695E92F96959695E90F5B
S1131020FF27E25CFE4F99273327EE24FF24A70114
S1131030E70105900894079428F4360FE71EF81E7C
S1131040491F511D660F771F881F991F0694A1F72A
S11310500590079428F4E70EF81E491F561FC11D7A
S1131060770F881F991F661F0694A1F705900794B0
S113107028F4F80E491F561FC71FD11D880F991F4A
S1131080661F771F0694A1F70590079420F4490F73
S1131090561FC71FD81F990F661F771F881F0694F6
S11310A0A9F784911095177041F0D695C795579577
S11310B04795F794E7941A95C1F7E4EEF0E0689445
S11310C01590159135916591959105907FE27395F1
S11310D0E118F10A430B560BC90BD009C0F7E10C18
S11310E0F11E431F561FC91FD01D7EF4703311F427
S11310F08A95E6CFE894015030F0080F0AF40027EF
S1131100021708F4202F2395022F7A3328F079E36D
S11311107D932A95E9F710C07D932A9589F6069464
S113112097956795379517951794E118F10A430B2E
S1131130560BC90BD00998F023957E9173957A3399
S113114008F070E37C932013B8F77E9170617D936F
S113115030F0839571E37D9370E32A95E1F71124D0
S1131160EF90FF900F911F91CF91DF91992787FD09
S10B117090950895F894FFCF57
S1131178018000000045312E302E300000000000B0
S1131188493A466C6173682C0000303072656164BA
S1131198007772697465006572726F7220646520E5
S11311A8636F6D616E646F004552524F523A20541A
S11311B8696D656F7574206573637269747572619E
S11311C80A00450076616C69646163696F6E3A2050
S11311D8006200507265706172616E646F207061A4
S11311E8726120626F72726172200A00626F727299
S11311F861646F206E200A00626F727261646F20EE
S11312080A00436F6D616E646F206E6F20726563B0
S11312186F6E6F6369646F2C20696E74656E746594
S10F122820636F6E2052206F20570000DE
S9030000FC
