:10000000EEC000000BC1000009C1000007C10000E4
:1000100005C1000003C1000001C10000FFC00000D5
:10002000FDC00000FBC00000F9C00000F7C00000E8
:10003000F5C00000F3C00000F1C00000EFC00000F8
:10004000EDC00000EBC00000E9C00000E7C0000008
:10005000E5C00000E3C00000E1C00000DFC0000018
:10006000DDC0000040C10000D9C00000D7C00000C2
:10007000D5C00000D3C00000D1C00000CFC0000038
:10008000CDC00000CBC00000C9C00000C7C0000048
:10009000C5C00000C3C00000C1C00000BFC0000058
:1000A000BDC00000BBC00000B9C00000B7C0000068
:1000B000B5C00000B3C00000B1C00000AFC0000078
:1000C000ADC00000ABC00000A9C00000A7C0000088
:1000D000A5C00000A3C00000A1C000009FC0000098
:1000E0009DC0000000407A10F35A00A0724E18091B
:1000F0000010A5D4E80000E87648170000E40B548F
:10010000020000CA9A3B000000E1F505000080965D
:100110009800000040420F000000A086010000008F
:10012000102700000000E803000000006400000049
:1001300000000A00000000000100000000002C7612
:10014000D888DC674F0823DFC1DFAE59E1B1B7962D
:10015000E5E3E453C63AE651997696E8E6C284268A
:10016000EB898C9B62ED407C6FFCEFBC9C9F40F266
:10017000BAA56FA5F490055A2AF75C936B6CF967E2
:100180006DC11BFCE0E40D47FEF520E6B500D0EDA7
:10019000902E0300943577050080841E080000200F
:1001A0004E0A000000C80C333333330F986E1283AD
:1001B0001141EF8D2114893BE65516CFFEE6DB1881
:1001C000D1844B381BF77C1D901DA4BBE424203246
:1001D00084725E228100C9F124ECA1E53D2711243F
:1001E0001FBECFEFD1E2DEBFCDBF00E00CBF12E0FB
:1001F000A0E0B2E0E6EBFAE000E00BBF02C007903F
:100200000D92AC3CB107D9F722E0ACECB2E001C0F2
:100210001D92AD3DB207E1F7D2D04BC4F1CE88E1DB
:100220008093C10086E08093C20087E090E09093C5
:10023000C5008093C40008959091C00095FFFCCF45
:100240008093C6000895CF93DF93EC0102C0F4DFE2
:10025000219688818111FBCFDF91CF9108958FEF97
:1002600087B98AB9EAE0F1E080831AB8108284B1D4
:100270008F6184B984B18F7D84B985B1876085B978
:1002800085B1886085B985B18F7E85B981E38A950E
:10029000F1F7000085B1806185B986E69EE001979F
:1002A000F1F700000895CF93DF93EC016AE172E06B
:1002B000A9D1892B31F41AB810920A0181E090E09B
:1002C0000FC06FE172E0CE019DD1892B39F48FEF21
:1002D0008AB980930A0181E090E002C080E090E05A
:1002E000DF91CF9108951F920F920FB60F921124B4
:1002F0000BB60F922F933F934F935F936F937F9320
:100300008F939F93AF93BF93EF93FF938091C6001A
:1003100080931902823539F48FDF8AE08DDF82E520
:100320008093180210C0873539F486DF8AE084DFB5
:1003300087E58093180207C085E47EDF8AE07CDFD2
:1003400085E480931802FF91EF91BF91AF919F9147
:100350008F917F916F915F914F913F912F910F906E
:100360000BBE0F900FBE0F901F901895CF92DF928B
:10037000EF92FF926B017C018AE192E094DF90930F
:10038000CD028093CC02892B51F485E292E05BDFB1
:100390008AE052DF8DE050DF80E090E00BC0C8B80B
:1003A000BB27AF2D9E2D8D2D8BB96701EE24FF2429
:1003B000C0920B01FF90EF90DF90CF900895F894DA
:1003C0002EDF88E98093C100789449DF8AE092E0CB
:1003D0003ADF80E092E037DF8AE02EDF809118027A
:1003E000823509F085C086E392E02DDF609114022A
:1003F000709115028091160290911702A7D00EEC11
:1004000012E020E04AE0DFD0C8011DDF8DE492E079
:100410001ADF8AE011DF8DE00FDF80E3809318029E
:10042000212C61C0422C512C440C551C440C551CF1
:10043000440C551C052C000C6608770883E592E0F7
:1004400002DF622D70E080E090E080D00EEC12E0E0
:1004500020E04AE0B8D0C801F6DE8AE0EDDE8BE5A8
:1004600092E0F1DE8EE692E0EEDE312C35C0832C98
:10047000912CA12CB12C73016201C80CD91CEA1C6F
:10048000FB1CC701B60172DFEC01C501B4015ED0EF
:100490000EEC12E020E04AE096D0C801D4DE84E8F9
:1004A00092E0D1DEC701B60151D020E04AE08BD006
:1004B000C801C9DE84E892E0C6DEBE0180E090E0BB
:1004C00045D020E04AE07FD0C801BDDE84E892E05C
:1004D000BADE8AE0B1DE339487E0831508F0C7CF37
:1004E0008AE0AADE23948FE0821508F09BCF76CFB6
:1004F0008735F1F488E892E0A6DE609114027091ED
:100500001502809116029091170220D00EEC12E095
:1005100020E043E058D0C80196DE8DE492E093DEFF
:100520008AE08ADE8DE088DE80E38093180256CF71
:10053000853409F053CF83EA92E085DE8AE07CDEE1
:100540008DE07ADE80E38093180248CFE89409C0FA
:1005500097FB3EF490958095709561957F4F8F4FF6
:100560009F4F9923A9F0F92F96E9BB279395F6950C
:10057000879577956795B795F111F8CFFAF4BB0F8A
:1005800011F460FF1BC06F5F7F4F8F4F9F4F16C0EE
:10059000882311F096E911C0772321F09EE8872F78
:1005A000762F05C0662371F096E8862F70E060E034
:1005B0002AF09A95660F771F881FDAF7880F9695AD
:1005C000879597F90895EF920F931F93CF93DF9339
:1005D000E80147FD02C034E001C034E1042E000C04
:1005E000550B57FF03C0519541955109E32E022F3A
:1005F000242FAE0110D0CE01DF91CF911F910F912A
:10060000EF900895FB01DC018D910190801901109C
:10061000D9F3990B08958F929F92AF92BF92CF9288
:10062000DF92EF92FF920F931F93CF93DF93CDB79B
:10063000DEB729970FB6F894DEBF0FBECDBF6A01B3
:10064000122FB02E2BE3201720F0FF24F394F00E8E
:1006500002C02CE3F22E0F2D27E0AE014F5F5F4F5B
:1006600050D1BC014981842F8970813031F0E1FC87
:1006700006C0E0FE06C090E205C09DE203C09BE21A
:1006800001C090E05E2D507143FF3CC0911102C04B
:1006900083E001C084E0811718F4212F281B01C0DA
:1006A00020E051110BC0F601822F30E2882319F0AF
:1006B00031938150FBCFC20ED11C20E0992329F049
:1006C000D6019C93F60131966F01C6010396E2FEB6
:1006D0000AC03EE4D6013C9341E411964C93119735
:1006E00012963C9306C03EE6F601308341E6418314
:1006F0003283FC01322F40E2332309F442C041939C
:100700003150FACF42FF44C0911102C083E001C0D2
:1007100084E0811718F4212F281B01C020E051111B
:100720000BC0F601822F30E2882319F031938150FB
:10073000FBCFC20ED11C20E0992329F0D6019C9357
:10074000F60131966F01C6010396E2FE0BC039E453
:10075000D6013C933EE411963C93119736E41296F1
:100760003C9307C039E6F60130833EE6318336E636
:100770003283FC01322F40E2332319F04193315090
:10078000FBCFFC01E20FF11D10828EEF9FEFA6C0A0
:1007900021E030E0911102C020E030E0161617068B
:1007A0001CF4FB01319602C0E1E0F0E02E0F3F1F88
:1007B000BB2021F0EB2DF0E0319602C0E0E0F0E04C
:1007C0002E0F3F1FE12FF0E02E173F071CF4121BE6
:1007D000212F01C020E08E2D887159F4F601822F5F
:1007E00030E2882319F031938150FBCFC20ED11C27
:1007F00020E0992329F0D6019C93F60131966F01F0
:1008000051110BC0F601822F90E3882319F09193C8
:100810008150FBCFC20ED11C20E00F2D060F9A8114
:10082000342F307144FF03C0913309F40150101686
:1008300024F4093018F008E001C001E0AB0177FFB3
:1008400002C040E050E0FB01E41BF50BA1E0B0E08A
:10085000AC0FBD1FEA0FFB1F8EE2A82E4B01801AC2
:1008600091080B2D10E01195019511094F3FBFEF35
:100870005B0721F4D601AC9211966D0164177507E0
:100880002CF08416950614F4818101C080E3415058
:1008900051093196D60111967D014017510724F078
:1008A000D6018C936701E2CF6417750739F496334C
:1008B00020F4953319F4311101C081E3F6018083EE
:1008C000F701822F90E2882319F091938150FBCF9A
:1008D000F701E20FF11D108280E090E029960FB63B
:1008E000F894DEBF0FBECDBFDF91CF911F910F9166
:1008F000FF90EF90DF90CF90BF90AF909F908F9040
:100900000895283008F027E03327DA01990F311DC8
:1009100087FD916000966105710539F432602E5FA4
:100920003D9330E32A95E1F708959F3F30F08038FA
:100930007105610509F03C5F3C5F3D93913008F023
:100940008068911DDF93CF931F930F93FF92EF92D7
:10095000192F987F9695E92F96959695E90FFF2781
:10096000E25CFE4F99273327EE24FF24A701E7011D
:1009700005900894079428F4360FE71EF81E491FC7
:10098000511D660F771F881F991F0694A1F70590C8
:10099000079428F4E70EF81E491F561FC11D770F54
:1009A000881F991F661F0694A1F70590079428F4E5
:1009B000F80E491F561FC71FD11D880F991F661FAC
:1009C000771F0694A1F70590079420F4490F561F4E
:1009D000C71FD81F990F661F771F881F0694A9F796
:1009E00084911095177041F0D695C7955795479506
:1009F000F794E7941A95C1F7E4EEF0E06894159047
:100A0000159135916591959105907FE27395E11867
:100A1000F10A430B560BC90BD009C0F7E10CF11ECC
:100A2000431F561FC91FD01D7EF4703311F48A95E1
:100A3000E6CFE894015030F0080F0AF400270217BF
:100A400008F4202F2395022F7A3328F079E37D9341
:100A50002A95E9F710C07D932A9589F60694979513
:100A60006795379517951794E118F10A430B560BC4
:100A7000C90BD00998F023957E9173957A3308F0CD
:100A800070E37C932013B8F77E9170617D9330F012
:100A9000839571E37D9370E32A95E1F71124EF903C
:100AA000FF900F911F91CF91DF91992787FD90952E
:060AB0000895F894FFCF49
:100AB600312E302E300000000000493A466C61733A
:100AC600682C000000000002303072656164007717
:100AD60072697465006572726F7220646520636F57
:100AE6006D616E646F00707265706172616E646FC5
:100AF6002070617261206C6565723A2000627974BB
:100B060065730050E167696E612000506F73097C60
:100B16002041646472097C20446174610A002D2DB1
:100B26002D2D2D7C2D2D2D2D2D2D2D7C2D2D2D2D51
:100B36002D2D0A00207C2000707265706172616E36
:100B4600646F207061726120657363726962697295
:100B56003A2000436F6D616E646F206E6F20726580
:100B6600636F6E6F6369646F2C20696E74656E7453
:0C0B76006520636F6E2052206F20570036
:00000001FF
