:10000000EEC000000BC1000009C1000007C10000E4
:1000100005C1000003C1000001C10000FFC00000D5
:10002000FDC00000FBC00000F9C00000F7C00000E8
:10003000F5C00000F3C00000F1C00000EFC00000F8
:10004000EDC00000EBC00000E9C00000E7C0000008
:10005000E5C00000E3C00000E1C00000DFC0000018
:10006000DDC0000051C10000D9C00000D7C00000B1
:10007000D5C00000D3C00000D1C00000CFC0000038
:10008000CDC00000CBC00000C9C00000C7C0000048
:10009000C5C00000C3C00000C1C00000BFC0000058
:1000A000BDC00000BBC00000B9C00000B7C0000068
:1000B000B5C00000B3C00000B1C00000AFC0000078
:1000C000ADC00000ABC00000A9C00000A7C0000088
:1000D000A5C00000A3C00000A1C000009FC0000098
:1000E0009DC0000000407A10F35A00A0724E18091B
:1000F0000010A5D4E80000E87648170000E40B548F
:10010000020000CA9A3B000000E1F505000080965D
:100110009800000040420F000000A086010000008F
:10012000102700000000E803000000006400000049
:1001300000000A00000000000100000000002C7612
:10014000D888DC674F0823DFC1DFAE59E1B1B7962D
:10015000E5E3E453C63AE651997696E8E6C284268A
:10016000EB898C9B62ED407C6FFCEFBC9C9F40F266
:10017000BAA56FA5F490055A2AF75C936B6CF967E2
:100180006DC11BFCE0E40D47FEF520E6B500D0EDA7
:10019000902E0300943577050080841E080000200F
:1001A0004E0A000000C80C333333330F986E1283AD
:1001B0001141EF8D2114893BE65516CFFEE6DB1881
:1001C000D1844B381BF77C1D901DA4BBE424203246
:1001D00084725E228100C9F124ECA1E53D2711243F
:1001E0001FBECFEFD1E2DEBFCDBF00E00CBF12E0FB
:1001F000A0E0B2E0E8E9F1E100E00BBF02C0079047
:100200000D92A03CB107D9F724E0A0ECB2E001C008
:100210001D92AA32B207E1F7CED2BCC7F1CE88E177
:100220008093C10086E08093C20087E090E09093C5
:10023000C5008093C40008959091C00095FFFCCF45
:100240008093C6000895CF93DF93EC0102C0F4DFE2
:10025000219688818111FBCFDF91CF9108958FEF97
:1002600087B98AB980930A0182B98093050111B8D0
:1002700010920401E1E0F1E080818F65808380814C
:100280008F7D8083E2E0F1E08081806280838081E5
:1002900087608083808188608083808180648083A0
:1002A00080818F7E808381E38A95F1F700008081D1
:1002B0008061808386E69EE00197F1F70000089553
:1002C000CF93DF93EC0160E272E00DD5892B51F4FE
:1002D00011B8109204018FEF82B98093050181E07B
:1002E00090E00FC065E272E0CE01FDD4892B39F4B5
:1002F0008FEF81B98093040181E090E002C080E03B
:1003000090E0DF91CF9108951F920F920FB60F9258
:1003100011240BB60F922F933F934F935F936F93DC
:100320007F938F939F93AF93BF93EF93FF938091AE
:10033000C60080931F029091010491113BC0823549
:1003400029F480931E021092010451C0873541F4B4
:1003500080931E0281E0809301041092C00247C086
:10036000883549F469DF8AE067DF88E580931E02FB
:10037000109201043CC0823621F481E08093040491
:1003800036C0853421F482E08093040430C0863581
:1003900021F481E0809300022AC0863719F410927C
:1003A000000225C088E548DF8AE046DF85E48093C7
:1003B0001E021DC0E091C00291E09E0F9093C0020A
:1003C000F0E090E0A0E0B0E0EE0FFF1FEE0FFF1FA7
:1003D000EF53FD4F80839183A283B3839091C0023A
:1003E00080910502981718F082E080930104FF9134
:1003F000EF91BF91AF919F918F917F916F915F919D
:100400004F913F912F910F900BBE0F900FBE0F9009
:100410001F90189580E292E053DF90931A04809326
:100420001904892B41F48BE292E00DDF8AE004DFAE
:100430008DE002CF089580B180931204409115049D
:10044000509116046091170470911804480F511DC3
:10045000611D711D40931504509316046093170499
:1004600070931804282F30E0309314042093130461
:10047000E3DE8091030180931204409115045091B2
:1004800016046091170470911804480F511D611DE6
:10049000711D4093150450931604609317047093D4
:1004A00018042091140430E0280F311D30931404F7
:1004B00020931304C1DE80911304809312040895E5
:1004C0000F931F93E2E0F1E020812260208368B95E
:1004D000072F182F292F33270BB9AA27BB27809363
:1004E0000B010000000042B95093050180818E7F0E
:1004F000808380818B7F8083808184608083808102
:10050000816080831F910F91089580E492E4AFE0B1
:10051000B0E006C00000000000000000DB01CA01DE
:100520002091000125FD0CC0AC01BD0141505109D5
:1005300061097109892B8A2B8B2B61F7DB01CA01B9
:10054000892B8A2B8B2B19F48CE392E07CCE0895B7
:10055000CF93C82F85E292E0B3DE90931A04809384
:100560001904892B41F48BE292E06DDE8AE064DEAF
:100570008DE062DE30C04AEA50E065E575E080E07B
:1005800090E09EDF45E550E06AEA72E080E090E0AE
:1005900097DF40E850E065E575E080E090E090DFAF
:1005A0004AEA50E065E575E080E090E089DF45E5E6
:1005B00050E06AEA72E080E090E082DF6C2F70E049
:1005C00080E090E040E350E07BDF80E791E001973E
:1005D000F1F700C09ADFCF91089510920E041092A7
:1005E0000F041092100410921104E1ECF2E08081EB
:1005F0009181A281B381782F662755274427848172
:100600009581A681B781DC0199278827842B952BBA
:10061000A62BB72B4085518562857385762F652F74
:10062000542F4427842B952BA62BB72B4485558517
:1006300066857785842B952BA62BB72B80930E048C
:1006400090930F04A0931004B093110440E050E085
:100650000DC0880F991F880F991FFC01EF53FD4FA4
:1006600080819181A281B381580F4F5F842F90E0E8
:100670002091C00230E021503109821793074CF3DA
:100680005195E091C002F0E03197EE0FFF1FEE0FA1
:10069000FF1FEF53FD4F80819181A281B3815817D5
:1006A00041F086E592E0CFDD1092010410921F0226
:1006B000089581E08093040408954F925F926F92B1
:1006C0007F929F92AF92BF92CF92DF92EF92FF9272
:1006D0000F931F93CF93DF936B017C01EA012B01F2
:1006E0003C0144245524E89460F8909002049A94C4
:1006F0005B018FE1A822BB24092D10E085E292E086
:10070000DFDD90931A0480931904892B41F48BE266
:1007100092E099DD8AE090DD8DE08EDD3CC0A01690
:10072000B106A1F14AEA50E065E575E080E090E0AD
:10073000C7DE45E550E06AEA72E080E090E0C0DEA6
:1007400045E250E0C301B201BBDEA801C701B6011A
:10075000B7DE10E013C0E12FF0E0EE0FFF1FEC0F4B
:10076000FD1F40815181542745275427C701B601F9
:10077000610F711D811D911DA3DE1F5F911658F73A
:1007800049E250E0C301B2019BDE05C08BE292E07A
:100790005ADD8AE051DDDF91CF911F910F91FF90DB
:1007A000EF90DF90CF90BF90AF909F907F906F9031
:1007B0005F904F900895CF93DF93CDB7DEB7C054CD
:1007C000D1090FB6F894DEBF0FBECDBFF89427DD78
:1007D00088E98093C100789442DD80911A0290915B
:1007E0001B02A0911C02B0911D02689413F8B695EB
:1007F000A795979587951694D1F7809301029093CA
:100800000202A0930302B093040280E192E01BDD98
:1008100086E092E018DD8AE00FDD88E592E013DDE6
:100820006091000270E080E090E001D20BE114E002
:1008300020E043E039D2C80106DD8AE0FDDC80918A
:10084000050290E005979C0112F42F5F3F4F35950C
:1008500027952093020480911E02823509F024C15D
:1008600080E380931E0210920E0410920F041092E7
:10087000100410921104C12CD12C760106C1D701AD
:10088000C601880F991FAA1FBB1F880F991FAA1F97
:10089000BB1F880F991FAA1FBB1F409105045091D1
:1008A00006046091070470910804840F951FA61F29
:1008B000B71F80930E0490930F04A0931004B0937D
:1008C000110410921504109216041092170410923D
:1008D000180488B980910E0490910F04A09110041F
:1008E000B0911104892F9A2FAB2FBB278BB9809120
:1008F0000E0490910F04A0911004B0911104CD0149
:10090000AA27BB278093120480930B0140910E0409
:1009100050910F046091100470911104440F551F01
:10092000661F771F40930A0450930B0460930C04D6
:1009300070930D04872F9927AA27BB2700911504D0
:10094000109116042091170430911804080F191FF4
:100950002A1F3B1F060F111D211D311D050F111DE3
:10096000211D311D552766277727400F511F621F14
:10097000731F4093150450931604609317047093EB
:1009800018048093090458DC80910A0490910B04A8
:10099000A0910C04B0910D04CD01AA27BB27809330
:1009A00009044ADC80910A0490910B04A0910C0484
:1009B000B0910D04892F9A2FAB2FBB278093090488
:1009C0003BDC80910A048093090436DCE2E0F1E02C
:1009D00080818E7F808380818D7F8083109203044D
:1009E00010E011C080910E0490910F04A0911004AA
:1009F000B0911104BC01CD01610F711D811D911DCC
:100A000068B908DD1F5F183068F3E2E0F1E080812B
:100A100082608083808181608083809115049091C1
:100A20001604A0911704B0911804B095A095909564
:100A300081959F4FAF4FBF4F9927AA27BB27809320
:100A4000150490931604A0931704B0931804F4DBD4
:100A50008091000281110EC081E0809304045AE06D
:100A60005A95F1F707C0823029F481E0C81AD108FD
:100A7000E108F108809104048823A9F3109204048A
:100A8000AFEFCA1ADA0AEA0AFA0A809101029091D3
:100A90000202A0910302B0910402C816D906EA0628
:100AA000FB0608F4ECCED7CE873509F09AC0109239
:100AB000040401C00000809101048130D9F38DDD70
:100AC000E1ECF2E0408951896289738984899589D2
:100AD000A689B789542F4427842B952B909314040F
:100AE0008093130480900E0490900F04A090100443
:100AF000B0901104B694A7949794879480920A04B6
:100B000090920B04A0920C04B0920D04FE01319659
:100B100080E4DF011D928A95E9F780910404813019
:100B200009F059C043C0242F30E0C9010296880F54
:100B300090E0FC01EE0FFF1FEE0FFF1FEF53FD4F84
:100B4000C080D180E280F380FC013196EE0FFF1F60
:100B5000EE0FFF1FEF53FD4F80819181A281B38182
:100B6000DC2CCC248C299D299093140480931304AD
:100B700075016401C40ED11CE11CF11CB0E1CB165F
:100B8000B0EEDB06BFEFEB06F10460F4220F331F7B
:100B9000E1E0F0E0EC0FFD1FE20FF31F9183808393
:100BA0004F5F05C086E592E04EDB06C040E08091D5
:100BB0000204481708F4B7CF60910A0470910B043F
:100BC00080910C0490910D04AE014F5F5F4F75DD75
:100BD00085E692E038DB80E380931E0210920104E8
:100BE0003ACE8835B1F487E692E02DDB10E006C0FE
:100BF000812FAEDC80E892E026DB1F5F1F3FC1F74C
:100C00008FEFA6DC8CE892E01EDB80E380931E026F
:100C100022CE853409F01FCE86E992E014DB8AE00B
:100C20000BDB8DE009DB80E380931E0214CEE89499
:100C300009C097FB3EF490958095709561957F4F24
:100C40008F4F9F4F9923A9F0F92F96E9BB279395D2
:100C5000F695879577956795B795F111F8CFFAF4E2
:100C6000BB0F11F460FF1BC06F5F7F4F8F4F9F4F13
:100C700016C0882311F096E911C0772321F09EE871
:100C8000872F762F05C0662371F096E8862F70E0D7
:100C900060E02AF09A95660F771F881FDAF7880FB1
:100CA0009695879597F90895EF920F931F93CF9399
:100CB000DF93E80147FD02C034E001C034E1042EB7
:100CC000000C550B57FF03C0519541955109E32E78
:100CD000022F242FAE0110D0CE01DF91CF911F91B2
:100CE0000F91EF900895FB01DC018D910190801927
:100CF0000110D9F3990B08958F929F92AF92BF92F2
:100D0000CF92DF92EF92FF920F931F93CF93DF93D7
:100D1000CDB7DEB729970FB6F894DEBF0FBECDBFB3
:100D20006A01122FB02E2BE3201720F0FF24F3943A
:100D3000F00E02C02CE3F22E0F2D27E0AE014F5F24
:100D40005F4F50D1BC014981842F8970813031F0CF
:100D5000E1FC06C0E0FE06C090E205C09DE203C0D3
:100D60009BE201C090E05E2D507143FF3CC09111A9
:100D700002C083E001C084E0811718F4212F281BF2
:100D800001C020E051110BC0F601822F30E2882310
:100D900019F031938150FBCFC20ED11C20E0992372
:100DA00029F0D6019C93F60131966F01C601039696
:100DB000E2FE0AC03EE4D6013C9341E411964C9316
:100DC000119712963C9306C03EE6F601308341E649
:100DD00041833283FC01322F40E2332309F442C0C5
:100DE00041933150FACF42FF44C0911102C083E0D9
:100DF00001C084E0811718F4212F281B01C020E0D6
:100E000051110BC0F601822F30E2882319F0319383
:100E10008150FBCFC20ED11C20E0992329F0D601CE
:100E20009C93F60131966F01C6010396E2FE0BC05A
:100E300039E4D6013C933EE411963C93119736E495
:100E400012963C9307C039E6F60130833EE63183C3
:100E500036E63283FC01322F40E2332319F041930E
:100E60003150FBCFFC01E20FF11D10828EEF9FEF9E
:100E7000A6C021E030E0911102C020E030E016165B
:100E800017061CF4FB01319602C0E1E0F0E02E0FE2
:100E90003F1FBB2021F0EB2DF0E0319602C0E0E0D7
:100EA000F0E02E0F3F1FE12FF0E02E173F071CF45C
:100EB000121B212F01C020E08E2D887159F4F601FC
:100EC000822F30E2882319F031938150FBCFC20E7C
:100ED000D11C20E0992329F0D6019C93F60131968C
:100EE0006F0151110BC0F601822F90E3882319F096
:100EF00091938150FBCFC20ED11C20E00F2D060F25
:100F00009A81342F307144FF03C0913309F40150AA
:100F1000101624F4093018F008E001C001E0AB011C
:100F200077FF02C040E050E0FB01E41BF50BA1E0BD
:100F3000B0E0AC0FBD1FEA0FFB1F8EE2A82E4B01E5
:100F4000801A91080B2D10E01195019511094F3F62
:100F5000BFEF5B0721F4D601AC9211966D016417C7
:100F600075072CF08416950614F4818101C080E386
:100F7000415051093196D60111967D014017510714
:100F800024F0D6018C936701E2CF6417750739F41A
:100F9000963320F4953319F4311101C081E3F60141
:100FA0008083F701822F90E2882319F0919381507A
:100FB000FBCFF701E20FF11D108280E090E029964F
:100FC0000FB6F894DEBF0FBECDBFDF91CF911F915A
:100FD0000F91FF90EF90DF90CF90BF90AF909F90D8
:100FE0008F900895283008F027E03327DA01990F11
:100FF000311D87FD916000966105710539F43260FD
:101000002E5F3D9330E32A95E1F708959F3F30F03E
:1010100080387105610509F03C5F3C5F3D9391307C
:1010200008F08068911DDF93CF931F930F93FF9279
:10103000EF92192F987F9695E92F96959695E90F3F
:10104000FF27E25CFE4F99273327EE24FF24A701F8
:10105000E70105900894079428F4360FE71EF81E60
:10106000491F511D660F771F881F991F0694A1F70E
:101070000590079428F4E70EF81E491F561FC11D5E
:10108000770F881F991F661F0694A1F70590079494
:1010900028F4F80E491F561FC71FD11D880F991F2E
:1010A000661F771F0694A1F70590079420F4490F57
:1010B000561FC71FD81F990F661F771F881F0694DA
:1010C000A9F784911095177041F0D695C79557955B
:1010D0004795F794E7941A95C1F7E4EEF0E0689429
:1010E0001590159135916591959105907FE27395D5
:1010F000E118F10A430B560BC90BD009C0F7E10CFC
:10110000F11E431F561FC91FD01D7EF4703311F40A
:101110008A95E6CFE894015030F0080F0AF40027D2
:10112000021708F4202F2395022F7A3328F079E351
:101130007D932A95E9F710C07D932A9589F6069448
:1011400097956795379517951794E118F10A430B12
:10115000560BC90BD00998F023957E9173957A337D
:1011600008F070E37C932013B8F77E9170617D9353
:1011700030F0839571E37D9370E32A95E1F71124B4
:10118000EF90FF900F911F91CF91DF91992787FDED
:0811900090950895F894FFCF3B
:10119800018000000045312E302E30000000000094
:1011A800493A466C6173682C000000000002303038
:1011B80072656164007772697465006572726F7236
:1011C80020646520636F6D616E646F004552524FF5
:1011D800523A2054696D656F75742065736372693E
:1011E800747572610A00450076616C6964616369AF
:1011F8006F6E3A20006200507265706172616E64B1
:101208006F207061726120626F72726172200A00D1
:10121800626F727261646F206E200A00626F727270
:1012280061646F200A00436F6D616E646F206E6F9A
:10123800207265636F6E6F6369646F2C20696E74CA
:10124800656E746520636F6E2052206F2057000012
:00000001FF
