:1000000064EF0BF06896000C046ED8CF05F0E0CFDB
:1000100006F00001E9CF0CF0EACF07F0E1CF08F0DD
:10002000E2CF09F0D9CF0AF0DACF0BF0F3CF12F01C
:10003000F4CF13F0FACF14F000C00EF001C00FF0AF
:1000400002C010F003C011F0A0AA2AEF00F0A1BA7C
:1000500006EF08F00EC000F00FC001F010C002F073
:1000600011C003F00CC0E9FF07C0EAFF078E08C00B
:10007000E1FF09C0E2FF0AC0D9FF0BC0DAFF12C0DE
:10008000F3FF13C0F4FF14C0FAFF045006C0E0FFF2
:1000900005C0D8FF1000F76AA60FF66E000EF72213
:1000A0000900F5501200000302FFFFFFFFFFFFFFF2
:1000B000FFFFFFFFFFFFF76AC60FF66E000EF72285
:1000C0000900F550120000FF02FFFFFFFFFFFFFFD6
:1000D000FFFFFFFFFFFFF76AE60FF66E000EF72245
:1000E0000900F55012004000080040000000000028
:1000F0000000000000000000000000000000000000
:10010000000000000000F76A160FF66E010EF722DD
:100110000900F550120040000000400000000000FF
:1001200000000000000000000000000000000000CF
:10013000000000000000F76A460FF66E010EF7227D
:100140000900F55012000902430002010080320943
:100150000400000102020100052400100104240231
:10016000020524060001052401000107058103089A
:1001700000FA09040100020A00000007050202401B
:1001800000010705820240000100F76A9A0FF66E2F
:10019000010EF7220900F55012000200F76AAC0FB9
:1001A000F66E010EF7220900F550120012171B20FF
:1001B000FFFFFFFFF76AC40FF66E010EF72209007A
:1001C000F5501200120110010200004061043300DA
:1001D000000101020001F76AE60FF66E010EF72238
:1001E0000900F5501200040309040803430043000A
:1001F00053001803530045005200490041004C00D1
:100200002000440045004D004F006D92699468A4A1
:1002100002D06894FCD712EF08F0400E0401016F81
:10022000040E036F180E026F880E006F046B040E2D
:10023000076F580E066F0001000C70A002D0EDDFB2
:100240007090689A1BEF08F06A6A689221EF08F0D4
:10025000D591D4BFD581D49FD451100803E2000EAC
:10026000016E21D0D5A110D0036AD451F2CFD6F0BF
:10027000F29E11DFD6BFF28EFF0802E1000E01D020
:10028000010E016E10D00FD0036AD451F2CFD6F018
:10029000F29E11DFD6BFF28EFF0802E1000E01D000
:1002A000010E016E00D0000CD951DB03F3CF01F039
:1002B000F4CF00F0DC03F3500026DA51DB03F350F7
:1002C0000020026E000C036AD351700FE96E0F0E0E
:1002D0000320EA6EEF6AD3C0D4F0BADF015222E005
:1002E000DA6BD3C0D9F0DC6B080EDB6FDDDF01C049
:1002F000E9FF040E0224EA6EEF6ADA6BD3C0D9F08C
:10030000DC6B080EDB6FD0DF02C0D5F001C0D4F08B
:10031000040ED427000ED523D4C0E9FF040ED52542
:10032000EA6EEF6A000C010ED26FD2510F0805E39E
:10033000D2C0D3F0C8DFD22BF8D7000C296A286AC4
:10034000250E276E800E266E2A6A2B6A080E2C6EEA
:100350007B6B7A912E6A2D6A766B7791000CC86B55
:10036000C85101080AE3036AC851240FE96E000E60
:100370000320EA6EEF6AC82BF3D7E0DF186A010E9C
:10038000196E176A000C6A6A686A9F0E6B6E3D0EE2
:10039000696E6E6AC8DFE3DF160E706E68A602D063
:1003A00031DEFCD76D9839DF030E1F6E27EF08F0A2
:1003B000698468986D822DEF08F0689C33EF08F02F
:1003C000CDC020F0000CFF0E206E000CCB6B235232
:1003D00035E0CB513F0832E31A5005E0020A0DE048
:1003E000010A15E01ED0036A2250F2CFCDF0F29E32
:1003F000A2DECDBFF28ECC6F14D0036A2250F2CFB2
:10040000CDF0F29EE8DECDBFF28ECC6F0AD0036A4B
:100410002250F2CFCDF0F29ECDDECDBFF28ECC6F6A
:1004200000D0222A2306CB51CB2B580FE96E040EA5
:10043000EA6ED8B0EA2ACCC0EFFFC9D7235204E154
:10044000CB51400801E0176ACBC0CDF0B9DF000CFA
:10045000226A1A6A04011B51010A000107E0030A1B
:100460000AE0010A0BE0220A20E03AD0120E236EC5
:10047000030E1A6E37D0430E236E34D0020E1A6E5E
:10048000036A04011A511B0FE96E000E0320EA6E85
:10049000EFCF22F0036A2250F2CFCAF0F29E0001A1
:1004A0009ADECABFF28E236E1DD0036A04011A5170
:1004B000F2CFCAF0F29E000171DECABFF28E226E48
:1004C000223C01D00BD0036A2250F2CFCAF0F29E38
:1004D00032DECABFF28E236E05D002D074DF0ED09A
:1004E00072DF0CD004011F5305E123501E5D02E2B0
:1004F0001EC423F0010E176E000168DFC0EF03F089
:10050000CA5304E1040E1F6E0EDFE7D0050E1F6E06
:10051000040ECD6F980ECC6F010ECB6FCB510F0830
:10052000D8A0DBD0CBC0D3F0CEDECE6B036ACB51EC
:10053000F2CFD2F0F29EBFDDD2BFF28EFF0863E0B1
:10054000040ECE6FD890CB35036AF2CFD2F0F29E74
:10055000DADD0900F5CF03F0D2BFF28ECF6F03C012
:10056000D0F0DA6BCBC0D9F0DC6B080EDB6F9CDE11
:1005700001C0D2F0010E0124016E000E0220036EB4
:1005800001C0E9FF040E0324EA6ECFC0EFFFDA6B6F
:10059000CBC0D9F0DC6B080EDB6F86DE01C0D2F079
:1005A000020E0124016E000E0220036E01C0E9FF5D
:1005B000040E0324EA6ECDC0ECFFED52CCC0EFFF79
:1005C000D890CB35036AF2CFD2F0F29E9CDD0900C1
:1005D000F5CF03F0D2BFF28ECC270350CD23880E87
:1005E000D16FD0B1D181D0B3D183DA6BCBC0D9F088
:1005F000DC6B080EDB6F58DE01C0E9FF040E02243D
:10060000EA6ED1C0EFFF036ACB51F2CFD2F0F29E77
:1006100042DDD2BFF28EFF0845E0CE83DA6BCBC05D
:10062000D9F0DC6B080EDB6F3FDE02C0D3F001C0F7
:10063000D2F0040ED227000ED323020ED225016E73
:10064000000ED321036E01C0E9FF040E0324EA6EFD
:10065000CDC0ECFFED52CCC0EFFFD890CB35036A94
:10066000F2CFD2F0F29E37DD0900F5CF03F0D2BF12
:10067000F28ECC270350CD23DA6BCBC0D9F0DC6BE4
:10068000080EDB6F11DE02C0D3F001C0D2F0040E01
:10069000D227000ED323D2C0E9FF040ED325EA6E81
:1006A000400EEF6ECE51060802E10E0ECE6F036AC9
:1006B000CB51F2CFD2F0F29EEEDCD2BFF28E010827
:1006C000D8A4CE89036ACB51700FE96E0F0E0320B8
:1006D000EA6ECEC0EFFFCB2B21D7BAEF03F00401B7
:1006E0001951000A00010DE0010A14E0020A1EE09F
:1006F000060A27E0030A2CE00E0A2CE0010A30E08B
:100700003DD019C058F40401596B020E0001CD6FA1
:1007100057DE36D004011A2D06D0010E191600013D
:10072000CD6B4EDE02D000014EDE2AD004011A2D20
:1007300005D019820001CD6B43DE02D0000143DEFB
:100740001FD0020E176E1AC421F0CD6B39DE18D0FF
:100750007FD616D018C058F4010ECD6F31DE10D000
:1007600004011A51010808E31AC418F01AC4CAF0A7
:100770000001C6D6CD6B24DE000102D024DE00D0FD
:1007800039EF05F018C0CAF004011951000A000140
:1007900005E00A0A0BE0010A2BE03CD00401586B8B
:1007A000596B020E0001CD6F0BDE36D0CA531EE02E
:1007B000010ECA5D036AF2CFCBF0F29EE6DCCBBF3E
:1007C000F28E016E04011C5DD8A002D000010ED093
:1007D000036A1C51240FE96E000E0320EA6EEFCF6E
:1007E00058F4010E0001CD6FEBDD01D0ECDD14D02B
:1007F000CA530EE0036A04011C51240FE96E000E77
:100800000320EA6E1AC4EFFF0001CD6BD9DD01D0E1
:10081000DADD02D0D8DD00D039EF05F0CB91CABFC8
:10082000CB81CA9FCBA117D0DA6BCAC0D9F0DC6BE1
:10083000080EDB6F39DD02C0CDF001C0CCF0040E34
:10084000CC27000ECD23CCC0E9FF040ECD25EA6EE7
:10085000880EEF6E0DD0DA6BCAC0D9F0DC6B080ED3
:10086000DB6F22DD01C0E9FF040E0224EA6EEF6AAD
:10087000AEEF04F0CB91CABFCB81CA9FCBA117D0FA
:10088000DA6BCAC0D9F0DC6B080EDB6F0DDD02C07D
:10089000CDF001C0CCF0040ECC27000ECD23CCC08F
:1008A000E9FF040ECD25EA6E840EEF6E0ED0DA6BF2
:1008B000CAC0D9F0DC6B080EDB6FF6DC01C0E9FFC3
:1008C000040E0224EA6E840EEF6EB4EF04F0CB91B6
:1008D000CABFCB81CA9FCBA117D0DA6BCAC0D9F0EF
:1008E000DC6B080EDB6FE0DC02C0CEF001C0CDF0A7
:1008F000040ECD27000ECE23CDC0E9FF040ECE2579
:10090000EA6EEFCFCCF00ED0DA6BCAC0D9F0DC6B58
:10091000080EDB6FC9DC01C0E9FF040E0224EA6E99
:10092000EFCFCCF0CCAF02D0CCB502D0000E01D0CE
:10093000010E016EBEEF04F01CC4D4F089DC01523C
:1009400029E004011951010A000105E0020A09E049
:10095000030A0DE01DD01CC4CAF060D7CD6B30DD9A
:1009600019D01CC4CAF086D7CD6B2ADD13D0040180
:10097000586B596B1CC4CAF00001A9D7015204E09E
:10098000010E0401586F0001020ECD6F19DD02D077
:100990001ADD00D039EF05F0FE0E206E000C0401C8
:1009A0001C2D01D002D01C5349E11951000A00014D
:1009B0000BE0010A0DE0210A1CE0010A1FE0030A16
:1009C0002EE0010A31E037D0010E7D6FE5DF35D032
:1009D000040EEA6E580EE96EE26A2F0EE16E080E02
:1009E000016EE6CFEEFF012EFCD71EC4CDF0E8DC91
:1009F00024D0020E7D6F7A81CFDF1FD0040EEA6E05
:100A0000580EE96EE26A260EE16E070E016EE6CF21
:100A1000EEFF012EFCD7070ECD6FD2DC0ED01AC42C
:100A20007BF0CD6BCDDC09D01AC42EF01BC42DF0A9
:100A3000CD6BC6DC02D0C7DC00D00401000139EF69
:100A400005F0176A040118517F0B000A000107E046
:100A5000010A07E0030A07E0230A07E008D03FD6AF
:100A600008D090D606D068D704D099D702D0ABDC96
:100A700000D05BEF07F0DA6BCAC0D9F0DC6B080E70
:100A8000DB6F12DC01C0E9FF040E0224EA6EEFCF37
:100A9000CCF0CB51020806E1CCAD02D0CB6B02D03A
:100AA000010ECB6FCB5103081AE1840ECC6FDA6BC9
:100AB000CAC0D9F0DC6B080EDB6F54EC01F002C049
:100AC000D0F001C0CFF0040ECF27000ED023CFC04E
:100AD000E9FF040ED025EA6E840EEF6E07D0CB2D11
:100AE00003D0C80ECC6F02D0880ECC6FD890CA3518
:100AF000036AF2CFCFF0F29E83EC00F00900F5CF4D
:100B000003F0CFBFF28ECD6F03C0CEF0DA6BCAC058
:100B1000D9F0DC6B080EDB6F54EC01F001C0CFF0B4
:100B2000010E0124016E000E0220036E01C0E9FFD8
:100B3000040E0324EA6ECDC0EFFFCEB1CC81CEB35C
:100B4000CC83DA6BCAC0D9F0DC6B080EDB6F54ECD7
:100B500001F001C0E9FF040E0224EA6ECCC0EFFFF1
:100B6000000C036AD851700FE96E0F0E0320EA6E75
:100B7000EF5219E0DA6BD8C0D9F0DC6B080EDB6FEE
:100B800054EC01F002C0DAF001C0D9F0040ED9270C
:100B9000000EDA23D9C0E9FF040EDA25EA6EEFCFA2
:100BA000D9F0D9AF02D0000E01D0010E016E000CB9
:100BB000D3C0D8F0D6DF0152D8B47CD0DA6BD3C022
:100BC000D9F0DC6B080EDB6F54EC01F002C0D9F0F9
:100BD00001C0D8F0040ED827000ED923010ED82565
:100BE000016E000ED921036E01C0E9FF040E03243B
:100BF000EA6ED4C0EFFFD65102081EE1DA6BD3C013
:100C0000D9F0DC6B080EDB6F54EC01F002C0D9F0B8
:100C100001C0D8F0040ED827000ED923D8C0E9FFB0
:100C2000040ED925EA6EEFCFD7F0D7AD02D0D66B40
:100C300002D0010ED66F18D0D651040815E1DA6B38
:100C4000D3C0D9F0DC6B080EDB6F54EC01F001C0AF
:100C5000E9FF040E0224EA6EEFCFD7F0D7AD03D040
:100C6000010ED66F01D0D66BD62D03D0C80ED76F2C
:100C700002D0880ED76FD5B1D781D5B3D783DA6BC1
:100C8000D3C0D9F0DC6B080EDB6F54EC01F002C06E
:100C9000D9F001C0D8F0040ED827000ED923D8C04F
:100CA000E9FF040ED925EA6ED7C0EFFF010E016EF1
:100CB00003D000D0000E016E000C7D51010A03E04C
:100CC000030A13E024D0EA6A2F0EE96E040EE26EE6
:100CD000180EE16E080E016EE6CFEEFF012EFCD776
:100CE000CD6BE0EC01F07D6B14D0EA6A260EE96E64
:100CF000040EE26E180EE16E070E016EE6CFEEFFF7
:100D0000012EFCD77D6BCD6BE0EC01F002D07D6B4A
:100D100000D0B5EF06F0DA6BCBC0D9F0DC6B080E73
:100D2000DB6F54EC01F002C0CDF001C0CCF0010E3D
:100D30000124016E000E0220036E01C0E9FF040EC3
:100D40000324EA6E036AEFCF01F003C002F0AEEFB6
:100D500006F07781796B020ECB6FDDD701C078F09A
:100D6000BAEF06F0CA5302E1A8D704D0CA5102086C
:100D700001E1EFD7000CCBC06EFFCB5303E0040EB4
:100D80001F6E02D0020E1F6ECBEF06F0186A176AB4
:100D900021C0CBF0F0D73AEF07F0CBC0D8F0E1DEBE
:100DA000015246E0DA6BCBC0D9F0DC6B080EDB6F8A
:100DB00054EC01F002C0D4F001C0D3F0040ED327EC
:100DC000000ED423020ED325016E000ED421036E33
:100DD00001C0E9FF040E0324EA6EECCF03F0ED52EC
:100DE000EFCFD1F003C0D2F0D2C0EAFFD1C0E9FF0B
:100DF000CDC0E2FFCCC0E1FFCFC002F0CEC001F019
:100E0000015202E0022A02D0025206E0E6CFEEFFD3
:100E1000012EFCD7022EFAD7CBC0D3F0CFC0D5F02D
:100E2000CEC0D4F0D0C0D6F0C3DE015003D000D085
:100E3000000E016E000C020ECB6FCD6B370ECC6F27
:100E4000CF6B76C0CEF0020ED06FA7DF76C07CF0FD
:100E5000766B000C765301E0EEDF3FEF07F0CA53EC
:100E60000AE1172C03D0E6EC01F004D01750020879
:100E700001E18CD704D0CA51020801E1EBD7000C84
:100E80001E30C86FC833C8331F0EC8171E5242E148
:100E9000040100513C0B0001C96F430E040100170F
:100EA0000001C95134081EE104010451800B01E026
:100EB000046B0001C6D56D98203C05D0CA6B030EAB
:100EC000CB6FD9DD0ED0CA6B020ECB6FD4DD2050B4
:100ED000FE0807E0D36BD56B20C0D4F0040ED66FAC
:100EE00067DE17D0C951040814E1CA6B3BDFCA6B37
:100EF000020ECB6FC0DD2050FE080AE0203C01D07E
:100F000007D0D36BD56B20C0D4F0010ED66F50DE66
:100F100000D07AD01E50040814E1430E04010417D7
:100F2000FF0E206E0001CA6B9ADF203C01D008D072
:100F3000D36BD56B20C0D4F0020ED66F39DE00D053
:100F400063D01EB42AD0DA6BC8C0D9F0DC6B080EAF
:100F5000DB6F54EC01F001C0CAF001C001F0040ED7
:100F60000224036E01C0CAF0CB6FDA6BC8C0D9F09F
:100F7000DC6B080EDB6F54EC01F001C0E9FF040EDE
:100F80000224EA6EEF50430BCBC0EAFFCAC0E9FF70
:100F9000EF6EC8C0CAF0E6DE37D0DA6BC8C0D9F051
:100FA000DC6B080EDB6F54EC01F002C0CBF001C02B
:100FB000CAF0040ECA27000ECB23CAC001F0040EEB
:100FC000CB25036ECAC0CAF0CB6FDA6BC8C0D9F0AC
:100FD000DC6B080EDB6F54EC01F002C0CDF001C0F9
:100FE000CCF0040ECC27000ECD23CCC0E9FF040EBC
:100FF000CD25EA6EEF50430BCBC0EAFFCAC0E9FF34
:10100000EF6EC8C0CAF02BDF3DEF08F0A19A1F5267
:1010100001E139D0685237E068A404D069A402D055
:1010200005EF01F06DA201D02ED068AA04D069AA04
:1010300002D01DEF01F068A204D069A202D024EF13
:1010400001F068A004D069A002D0C3EF01F068A845
:1010500004D069A802D0D8EF01F068AC04D069AC24
:1010600002D0DDEF01F0C76B68A608D069A606D0F4
:101070006CCF1EF002EC00F003D701D004D0C751B2
:10108000C72B0308F1E22AEF00F06D6A696A080EC7
:101090006F6E94503009946E1F6A166AF2BE168EF7
:1010A000F29EAFEC01F016BEF28E58EF08F0EDD7CD
:1010B0007DEF08F0166AF2BE168EF29EAFEC01F0DC
:1010C00016BEF28E6D6A140E6F6E696A6D86010E21
:1010D0001F6E6EEF08F06DB601D0ECD71F2C0BD051
:1010E0006DBA09D0686A696AA08AC00EF212110E40
:1010F000696E020E1F6E000CDAD7EDDF1F5002087A
:10110000FCE195EF0BF01850016E97EF0BF08E0E8F
:10111000006EAEC001F0ADC002F0036A015209E1F9
:1011200002C001F0026A080E005E015202E1006A8C
:1011300008D0D89001BE04D0023601360006F9D797
:10114000019EA6EF0BF0BA51D8B471D0006EBE511B
:10115000D8B46DD0002604E3810E002668E204D0E6
:101160007F0E005E64E363E0BBC0C2F0BF51C21BF0
:10117000BB8FBF8FBD51C103F4CFC4F0BC51C003BE
:10118000F4CF03F0F3CFC3F0C103F350C427F450FE
:10119000C323000E0322BD51C003F350C427F450F3
:1011A000C323000E026A03220222BB51C103F35083
:1011B000C327F4500322000E0222BB51C003F35098
:1011C0000326F4500222000E016A0122BD51BF0322
:1011D000F350C327F4500322000E02220122BC5117
:1011E000BF03F3500326F4500222000E0122BB512C
:1011F000BF03F3500226F4500122002A01BE05D09D
:10120000C3370336023601360006000EC3AF0AD0DC
:10121000032A02220122015005E1025003E103509A
:1012200001E1002AC2BF018EC2AF019E04D0006A54
:10123000016A026A036A000CB151D8B4A5D0BD6F2F
:10124000B551D8B4A1D0BD5F05E37F0EBD27D8B09E
:101250009BD006D0810EBD5FD8A096D0D8B494D0D4
:10126000BDC000F0016A026A036ABC6BB2C0BBF089
:10127000BB8FB3C0BAF0B4C0B9F0190EBD6FB8518E
:10128000B95F0DE2010EBA5F0AE2BB5F08E2BC5F24
:1012900006E2BC2BBB2BBA2BB851B92728D0B751CB
:1012A000BA5F12E2010EBB5F0FE2BC5F0DE2BC2B26
:1012B000BB2BB751BA27B851B92719E3BA2B17E19D
:1012C000BB2B15E1BC2B13D0B6518009BB5F0EE2DE
:1012D000010EBC5F0BE2BC2BB6518009BB27B75196
:1012E000BA27E9E3BB2BE7E1BC2BE5D70380BD2F91
:1012F00001D00BD0D890B937BA37BB37BC37D890AC
:10130000033602360136BE37BAD7BEA106D0D89012
:10131000013202320332BE3302D0000635E0BEBFD6
:101320001ED0D890B937BA37BB37BC37B851B95F80
:1013300007E2010EBA5F04E2BB5F02E2BC5F1AE3A0
:10134000B751BA5F05E2010EBB5F02E2BC5F12E378
:10135000B6518009BB5F03E2010EBC5F0BE3032AB9
:1013600009E1022A07E1012A05E1002A0DE0013224
:1013700002320332B2C0BDF0B651BD1BBDAF02D0C8
:10138000018E06D0019E04D0006A016A026A036AD7
:10139000CDEF0BF086C0EAFF85C0E9FFBAC0EFFFD2
:1013A000E92AD8B4EA2AEF6A852BD8B4862B000C38
:1013B000BA51B608BA6F036ABBC0BEF0BB8FD890F3
:1013C000BB33BC33BD330332023201320032BA2F99
:1013D000F6D7BEAF0BD0001E011E021E031E002A50
:1013E000D8B4012AD8B4022AD8B4032A5CEF0AF090
:1013F000006A016A026A036AC26BC36BC46BC56B85
:10140000C151C011BF11BE112CE0200EC66FD89083
:10141000BA37BB37BC37BD37C237C337C437C53718
:10142000C151C55D08E1C051C45D05E1BF51C35D57
:1014300002E1BE51C25D0FE3BE51C25FBF51D8A0F1
:10144000BF3DC35FC051D8A0C03DC45FC151D8A04B
:10145000C13DC55FD8800036013602360336C62F3F
:10146000D6D7EA6AC20EE96E000CE950B26FB151EC
:10147000B46F19E0B0C0BDF0AFC0BCF0AEC0BBF0FF
:10148000ADC0BAF0C16BC06B200EBF6F820EBE6FD5
:101490005ADE03C0B0F002C0AFF001C0AEF000C031
:1014A000ADF0B42FE7D7B0C0BDF0AFC0BCF0AEC058
:1014B000BBF0ADC0BAF07CD703C0B0F002C0AFF053
:1014C00001C0AEF000C0ADF0B0AF0DD0B207B28B2E
:1014D000AD1FAE1FAF1FB01FAD2BD8B4AE2BD8B40D
:1014E000AF2BD8B4B02B3B0EB96F9A0EB86FCA0EA3
:1014F000B76FB66B0A0EB46FB151D8B4B22BB0C08F
:10150000BDF0AFC0BCF0AEC0BBF0ADC0BAF0B9C06A
:10151000C1F0B8C0C0F0B7C0BFF0B6C0BEF068DF61
:101520000150EFCFADF0ECCFAEF0ECCFAFF0ECCFA1
:10153000B0F000520FE1B129B45D0CE0B2510CE003
:101540000F0BB45D01E037E2B2BF35D0B2BD04D0BD
:10155000200E2DD0200EB217B2AB0CD0B29BB151E1
:10156000D8A4B2070050B26F2D0EBA6F13DFB2517C
:10157000006EB26BB151B45D0AE10050B26F2E0E35
:10158000BA6F08DFB251006E200EB217000E300E97
:10159000B2AB0DD0B29BB151D8A4B2070050B26F1C
:1015A0002D0EBA6FF7DEB251006EB26B300E002610
:1015B00000C0BAF0EFDEB9C0BDF0B8C0BCF0B7C033
:1015C000BBF0B6C0BAF0C16BC06BBF6B0A0EBE6F8A
:1015D0000FDF03C0B9F002C0B8F001C0B7F000C01F
:1015E000B6F0B42F8CD7000CB191F2BEB181F29E4F
:1015F00076513E0802E23E0E766F7651762B036AF4
:10160000370FE96E000E0320EA6EB0C0EFFFF29EC6
:10161000B1B1F28E166AF2BE168EF29E020ED86F2D
:10162000B1EC05F016BEF28E015207E0166AF2BE6A
:10163000168EF29E00DC16BEF28E3AEF0BF076515B
:101640003E0815E2166AF2BE168EF29E020ED86FA2
:10165000B1EC05F016BEF28E015208E0166AF2BE39
:10166000168EF29E1BEC07F016BEF28EE8D7AFC0C6
:10167000B0F0BAD745EF0BF0EF520FE0EACFAEF083
:10168000E9CFADF0EFCFAFF0DAD7AEC0EAFFADC033
:10169000E9FFE92AD8B4EA2AEFD71BEF0CF0EA6A8F
:1016A000AE0EE96EEF500EE00F0E016E006A002ED6
:1016B000FED7012EFBD78F0E006E002EFED7000046
:1016C000EF2EF2D720EF0CF0F86AD09E078EEA6A70
:1016D000E96A1F6A236A766B7D6B846BC150C00B0D
:1016E0000F09C16E070EB46E1B6A040E1C6E0C0E41
:1016F0001D6E7E6B7F6B856B866B886B876BC150B5
:10170000C00B0E09C16EC080C082C084C08EC28072
:10171000000E016EC250C30B0110C26E040E936E18
:101720008198819A9EEC01F0E7D4D5DCECD401528B
:10173000D8B488D0C282C2B2FED7C3CF87F0C4CF9C
:1017400088F088C0AEF087C0ADF0E1D4BD6BBC6B53
:10175000200EBB6F810EBA6F03C0C1F002C0C0F093
:1017600001C0BFF000C0BEF0EEDC00C0ADF001C0B3
:10177000AEF002C0AFF003C0B0F003C0B4F002C0DE
:10178000B3F001C0B2F000C0B1F0B86BC00EB76FDB
:101790007F0EB66F880EB56F4FD503C08CF002C0B8
:1017A0008BF001C08AF000C089F0866B8D0E856FCA
:1017B000490EBA6FEFDD890EE96E8CC0B0F08BC0B8
:1017C000AFF08AC0AEF089C0ADF0020EB16F4DDE51
:1017D000460EBA6FDFDD490EBA6FDCDD890EE96EA9
:1017E0008CC0B0F08BC0AFF08AC0AEF089C0ADF055
:1017F000020EB16F3ADE460EBA6FCCDD490EBA6FFB
:10180000C9DD890EE96E8CC0B0F08BC0AFF08AC024
:10181000AEF089C0ADF0020EB16F27DE460EBA6F92
:10182000B9DD200EBA6FB6DD0A0EBA6FB3DDEA6A13
:101830008D0EE96E21D7040EAD6FFA0EAE6F2FD765
:08184000AD2FFBD772D70300A6
:020000040030CA
:0E00000021CE3E1E008781000FC00FE00F4092
:00000001FF
;PIC18F4550
;CRC=A481  CREATED="31-may.-20 00:40"
