:020000040000FA
:040000000DEF00F010
:020008009AD08C
:080018008CD0D39CD38AD3984D
:100020000F0EC16E836A956A926A806A946A826AC8
:10003000F00E936E816AC70ED56EE80EF26ED08E0A
:10004000F180F1940A0ED66E036A006A040EF66E11
:10005000030EF76EF86A040E056E066E076E096EE3
:100060000B6E0D6E300E026E827207C0F6FF080036
:10007000F5CF08F009C0F6FF0800F5CF0AF00BC075
:10008000F6FF0800F5CF0CF00DC0F6FF0800F5CF25
:100090000EF000A202D000B4FCD70E0E806E08C095
:1000A00083FF8FEC00F00D0E806E0AC083FF8FEC93
:1000B00000F00B0E806E0CC083FF8FEC00F0070E7B
:1000C000806E0EC083FF8FEC00F000A0E2D700909E
:1000D000052A0D0E0564C8D7062A040E056E090E02
:1000E0000664C2D7072A040E066E0D0E0764BCD73D
:1000F000092A040E076E090E0964B6D70B2A040EEE
:10010000096E060E0D6007D00D0E0B64ADD70D2ADB
:10011000040E0B6EA9D7070E0B64A6D797D7000065
:10012000022EFDD7300E026E120000A0FED7009006
:100130001200F2940A0ED66E00800074100056EC85
:1001400001F0F290046E0E0E046065D0000E0364A0
:10015000ABD0010E03620CD004C007F007C0F6FF5D
:100160000800F5CF08F0020E036E8FEC00F09CD073
:10017000020E036213D007C009F009C0F6FF0800A1
:10018000F5CF0AF004C007F007C0F6FF0800F5CF6E
:1001900008F0030E036E8FEC00F086D0030E0362AE
:1001A0001AD009C00BF00BC0F6FF0800F5CF0CF019
:1001B00007C009F009C0F6FF0800F5CF0AF004C037
:1001C00007F007C0F6FF0800F5CF08F0040E036E35
:1001D0008FEC00F069D00BC00DF00DC0F6FF0800E9
:1001E000F5CF0EF009C00BF00BC0F6FF0800F5CFFD
:1001F0000CF007C009F009C0F6FF0800F5CF0AF0BF
:1002000004C007F007C0F6FF0800F5CF08F0010EA4
:10021000036E8FEC00F00E0E046204D0010E036E2C
:10022000008242D00F0E04623ED0000E036E009298
:100230000D0E076407D00D0E076E07C0F6FF08000D
:10024000F5CF08F0090E096407D0090E096E09C040
:10025000F6FF0800F5CF0AF0050E0D6419D0060E62
:100260000D6E0DC0F6FF0800F5CF0EF0070E0B6403
:100270001BD0070E0B6E0BC0F6FF0800F5CF0CF07D
:10028000060E0D6E0DC0F6FF0800F5CF0EF00CD077
:100290000D0E0B6409D00D0E0B6E0BC0F6FF08009F
:1002A000F5CF0CF001D000D0816A10000E0E816EE7
:1002B00081A80E0C81AA070C81AC060C81AE050C3E
:1002C0000D0E816E81A80F0C81AA0A0C81AC090C5D
:1002D00081AE080C0B0E816E81A8100C81AA0D0C4A
:1002E00081AC0C0C81AE0B0C070E816E81A8070C43
:0E02F00081AA080C81AC040C81AE040CFF0C3A
:0C030400C0F9A4B0999282F88098395E8C
:02031000797101
:020000040030CA
:04000000000A181EBC
:02000500018177
:060008000FC00FE00F40E5
:00000001FF
